:020000040800F2
:10000000A80D0220C10100085D1B00085B17000855
:10001000591A000821030008692100087856341293
:100020000000000000000000000000009D1B000810
:100030009D03000800000000991B00089F1B00089A
:10004000DB010008DB010008DB010008DB01000820
:10005000DB010008DB01000891040008DB01000857
:10006000DB010008DB010008DB010008DB01000800
:10007000DB010008DB010008DB010008DB010008F0
:10008000DB010008DB010008DB010008DB010008E0
:10009000DB010008DB010008DB010008DB010008D0
:1000A000DB010008DB010008DB010008DB010008C0
:1000B000DB010008DB010008DB010008DB010008B0
:1000C000DB010008DB010008DB010008DB010008A0
:1000D000DB01000805210008DB010008DB01000846
:1000E000DB010008DB010008DB010008DB01000880
:1000F000DB010008DB010008DB010008DB01000870
:10010000DB0100089B1B0008DB010008DB01000885
:10011000DB010008DB010008791C0008891C0008CD
:10012000DB010008DB010008DB010008990300087F
:10013000DB010008DB010008DB010008DB0100082F
:10014000DB010008DB010008DB010008DB0100081F
:10015000DB0100089B030008DB010008DB0100084D
:10016000DB010008DB010008DB010008DB010008FF
:10017000DB010008DB010008DB01000800000000D3
:10018000DB010008DB010008DB010008DB010008DF
:10019000DB010008DB010008DB010008DB010008CF
:1001A000DB010008DB010008DB010008DFF80CD0F0
:1001B00000F07AF80048004759240008A80D0220F2
:1001C0000648804706480047FEE7FEE7FEE7FEE7F1
:1001D000FEE7FEE7FEE7FEE7FEE7FEE7151C000888
:1001E000AD0100082DE9F05F0546002092469B46D0
:1001F00088460646814640241BE02846414647463D
:10020000224600F041F853465A46C01A914110D395
:1002100011461846224600F028F82D1A67EB01080F
:100220004F4622460120002100F01FF817EB00097D
:100230004E41201EA4F10104DFDC484631462A4627
:100240004346BDE8F09FD2B201E000F8012B491E01
:10025000FBD270470022F6E710B513460A46044663
:100260001946FFF7F0FF204610BD202A04DB203A94
:1002700000FA02F1002070479140C2F1200320FAF9
:1002800003F3194390407047202A04DB203A21FAF7
:1002900002F00021704721FA02F3D040C2F120029F
:1002A0009140084319467047064C074D06E0E06848
:1002B00040F0010394E8070098471034AC42F6D3AD
:1002C000FFF778FFB4250008D425000810B501F029
:1002D0006AFC064801F044FA01F042FB00F07EF8A7
:1002E00001F096FB01F0BAFB10BD0000000006080B
:1002F0000349096881F40061014A116070470000F8
:10030000141C024010B504460448006880F4806064
:100310000249086001F0E6FA10BD0000141C02401A
:1003200000BFFEE700B587B000BF0020019017486E
:10033000006840F00100154908600846006800F0B8
:100340000100019000BF00BF00BF002001900846DF
:10035000006840F0040008600846006800F00400EF
:10036000019000BF00BF0120029000200390049084
:1003700002A9074800F040FB4FF40050029002A988
:10038000044800F039FB07B000BD000030380240DF
:1003900000000240000802407047704770470000AC
:1003A00010B50C480C4908604FF4E130486000215A
:1003B00009488160C160016181610C21416101F0E6
:1003C00092F905480068C06840F0200002490968B9
:1003D000C86010BD001001405000002000B587B07B
:1003E00000BF002001902848006840F01000264916
:1003F00008600846006800F01000019000BF00BFD0
:1004000000BF0020019020481438006840F001002F
:100410001D49143908600846006800F00100019089
:1004200000BF00BF00BF002001900846006840F0F8
:10043000010008600846006800F00100019000BF5C
:1004400000BF481502900220039001200490032071
:1004500005900720069002A90C4800F0CDFA4FF451
:10046000806002900720069002A9084800F0C4FAB4
:1004700001220021252000F01AFC252000F00AFCB2
:10048000FFF78EFF07B000BD443802400000024075
:100490007047000010B5002201B909E0012901D11F
:1004A0000A0205E0022901D10A0201E04FF440727C
:1004B0000B2800D9001D0E4B1B6823F440730C4C15
:1004C000236023461B681343236023461B6823F0E5
:1004D000F803236023461B68022444EAC004234334
:1004E000034C236023461B6843F48033236010BD14
:1004F000103C02401C48006800F40070B0B11A487B
:10050000006820F400701849086000BF08460068C1
:1005100040F4006008600846006820F4006008604D
:1005200000BF0846006840F4007008600E4800688C
:1005300000F48060B0B10C48006820F480600A4983
:10054000086000BF0846006840F480500860084614
:10055000006820F48050086000BF0846006840F43E
:100560008060086070470000003C0240134A126837
:1005700022F44072114B1A60032906D11A46126800
:10058000DB131A430D4B1A600EE0012906D10B4A0A
:10059000126842F00402094B1A6005E0074A12682B
:1005A00042F40042054B1A60044A12684FF480334B
:1005B00043EA00231A43014B1A607047103C024083
:1005C000074A126822F44072054B1A601A461268F4
:1005D0001A601A46126842F001021A6001707047F0
:1005E000103C024010B50949096821F44071074CDC
:1005F00021602146096841F4407121602146096863
:1006000041F0010121600260436010BD103C0240D6
:10061000084A126822F44072064B1A601A461268A1
:1006200042F480721A601A46126842F001021A609F
:1006300001807047103C0240084A126822F4407260
:10064000064B1A601A46126842F400721A601A4683
:10065000126842F001021A6001607047103C0240CB
:100660002A48006800F0100040B12948C06940F0F5
:1006700010002749C86110202449086023480068F9
:1006800000F0200040B12248C06940F00800204935
:10069000C86120201D4908601C48006800F0400027
:1006A00040B11B48C06940F004001949C8614020AE
:1006B000164908601548006800F0800040B11448F1
:1006C000C06940F002001249C86180200F490860EB
:1006D0000E48006800F4807048B10D48C06940F0D1
:1006E00001000B49C8614FF4807008490860074851
:1006F000006800F0020040B10548C06940F02000E9
:100700000349C86102200149086070470C3C02405F
:100710003000002070B50446002500201449C8614F
:1007200000F080FA054609E0601C38B124B100F001
:1007300079FA401BA04201D9032070BD0D48006822
:1007400000F480300028EFD10A48006800F0010072
:1007500010B10120074908600648006800F4F970EC
:1007600018B1FFF77DFF0120E7E70020E5E7000073
:10077000300000200C3C0240014903C970470000D2
:1007800018000020014600202C4A914203D2B1F10A
:10079000006F00D350E02A4A914204D2274A914286
:1007A00001D3012048E0274A914204D2244A9142D1
:1007B00001D3022040E0244A914204D2214A9142CE
:1007C00001D3032038E0214A914204D21E4A9142CB
:1007D00001D3042030E01E4A914204D21B4A9142C8
:1007E00001D3052028E01B4A914204D2184A9142C5
:1007F00001D3062020E0184A914204D2154A9142C2
:1008000001D3072018E0154A914204D2124A9142BE
:1008100001D3082010E0124A914204D20F4A9142BB
:1008200001D3092008E00F4A914204D20C4A9142B8
:1008300001D30A2000E00B207047000000400008B0
:100840000080000800C00008000001080000020845
:1008500000000408000006080000080800000A085C
:1008600000000C0800000E082DE9F04104460E4679
:100870000127002500BF2648007E012802D1022062
:10088000BDE8F08101202249087600BF4CF25030CB
:10089000FFF740FF0746002F32D1401E306020682E
:1008A000012810D1207C6168FFF760FE4CF25030C7
:1008B000FFF730FF07461748006848F204018843F5
:1008C000144908601AE0A56812E0217C2846FFF769
:1008D000E1FD4CF25030FFF71DFF07460D48006860
:1008E00020F0FA000B4908600FB1356005E06D1C7F
:1008F000D4E902100844A842E7D800BFFFF7FAFD88
:1009000000BF00200249087600BF3846B8E7000063
:1009100030000020103C02400348006840F00040D6
:100920000149086000207047103C02402DE9F04169
:1009300006460F4614461D464FF0010800BF1F48EB
:10094000007E012802D10220BDE8F08101201B4970
:10095000087600BF4CF25030FFF7DCFE8046B8F15D
:10096000000F23D126B9E1B23846FFF729FE12E085
:10097000012E04D1A1B23846FFF74AFE0BE0022E49
:1009800004D121463846FFF757FE04E022462B46A5
:100990003846FFF727FE4CF25030FFF7BBFE80468B
:1009A0000748006820F001000549086000BF0020EA
:1009B0000249087600BF4046C6E70000300000202C
:1009C000103C024000200949096801F0004159B17A
:1009D0000749064A0C3A1160064911600349096843
:1009E00001F0004101B1012070470000103C0240BD
:1009F00023016745AB89EFCDF8B502460B460025CC
:100A0000002400200021E6E0012606FA01F51E6818
:100A100006EA0504AC4273D15E68022E02D05E681D
:100A2000122E13D1CF0802F1200656F827004E07E8
:100A3000F70E0F26BE40B0434F07FF0E1E69BE40A3
:100A40003043CF0802F1200646F8270010684F0017
:100A50000326BE40B0431E7906F003064F00BE4099
:100A6000304310605E68012E08D05E68022E05D00B
:100A70005E68112E02D05E68122E13D190684F006E
:100A80000326BE40B0434F00DE68BE403043906056
:100A9000506801268E40B0431E79C6F300168E4082
:100AA00030435060D0684F000326BE40B0434F0033
:100AB0009E68BE403043D0605E6806F08056B6F156
:100AC000805FA8D100BF00260096454E366846F4E8
:100AD0008046434F3E603E46366806F480460096A8
:100AE00000BF00BF3F4E8F0856F827008E07370F14
:100AF0000F26BE40B0433C4EB24202D100262EE04B
:100B000068E03A4EB24201D1012628E0384EB242A6
:100B100001D1022623E0374EB24201D103261EE066
:100B2000354EB24201D1042619E0344EB24201D111
:100B3000052614E0324EB24201D106260FE0314EB6
:100B4000B24201D107260AE02F4EB24201D1082657
:100B500005E02E4EB24201D1092600E00A268F0799
:100B60003F0FBE4030431F4E8F0846F82700284EE7
:100B70003068A0435E6806F48036B6F5803F00D149
:100B80002043234E3060361D3068A0435E6806F473
:100B90000036B6F5003F00D120431D4E361D3060B3
:100BA000361D3068A0435E6806F48016B6F5801FD7
:100BB00000D12043164E08363060361D3068A04301
:100BC0005E6806F40016B6F5001F00D12043104EF3
:100BD0000C363060491C1029FFF416AFF8BD000038
:100BE000443802400838014000000240000402403E
:100BF00000080240000C02400010024000140240B5
:100C000000180240001C0240002002400024024064
:100C1000003C0140024613690B400BB1012000E08B
:100C20000020704701480068704700000400002061
:100C3000034800680349097808440149086070477F
:100C4000040000200C00002070B504460E48007817
:100C50004FF47A71B1FBF0F00C490968B1FBF0F583
:100C6000284600F00BFC08B1012070BD102C07D203
:100C700000222146501E00F01AF80548046001E0E9
:100C80000120F2E70020F0E70C0000200000002027
:100C90000800002000BF00F01F020121914042091E
:100CA000920002F1E022C2F8001100BF70472DE966
:100CB000F05F80460D461646002700F051FF0746BC
:100CC00039462A46334601F00700C0F1070ABAF157
:100CD000040F02D94FF0040A01E0C0F1070AD1461F
:100CE00000F1040ABAF1070F02D24FF0000A01E046
:100CF000A0F1030AD4464FF0010A0AFA09FAAAF150
:100D0000010A0AEA020A0AFA0CFA4FF0010B0BFA7E
:100D10000CFBABF1010B0BEA030B4AEA0B04214677
:100D2000404600F025FFBDE8F09F000038B50024E4
:100D300000BF002000901D48006840F080501B4913
:100D400008600846006800F08050009000BF00BFB7
:100D5000012017490864FFF765FF044607E0FFF725
:100D600061FF001BB0F57A7F01D9032038BD11481F
:100D7000406800F48030B0F5803FF0D101200C498C
:100D80004864FFF74FFF044607E0FFF74BFF001BE7
:100D9000B0F57A7F01D90320E8E70648406800F4FF
:100DA0000030B0F5003FF0D10020DFE740380240CE
:100DB00000000E420070004070B504460D460CB9AC
:100DC000012070BD5848006800F00F00A84209D209
:100DD00055490D700846006800F00F00A84201D088
:100DE0000120EEE7207800F0020002281DD12078D3
:100DF00000F00400042805D14C48006840F4E0509D
:100E00004A490860207800F00800082805D14748C2
:100E1000006840F46040454908604448006820F09C
:100E2000F000A168084341490860207800F0010003
:100E3000A8B36068012807D13C4808380068C0F3AF
:100E40004040B8B90120BCE76068022802D0606861
:100E5000032807D1354808380068C0F3406048B916
:100E60000120AEE7314808380068C0F3400008B9F7
:100E70000120A6E72D48006820F0030061680843C0
:100E80002A490860FFF7CEFE064609E0FFF7CAFED2
:100E9000801B41F28831884202D9032091E707E0A4
:100EA0002248006800F00C006168B0EB810FEDD1C2
:100EB0001D48006800F00F00A84209D91A490D70BA
:100EC0000846006800F00F00A84201D0012078E732
:100ED000207800F00400042807D11448006820F4AA
:100EE000E050E168084311490860207800F00800EC
:100EF000082808D10D48006820F46040216940EAC4
:100F0000C1000A49086000F03DF808490968C1F3CA
:100F10000311074A515CC840064908600F20FFF7DB
:100F200093FE00204DE70000003C024008380240DC
:100F30009825000800000020014800687047000064
:100F40000000002000B5FFF7F7FF04490968C1F36E
:100F50008221034A515CC84000BD000008380240AD
:100F6000A825000800B5FFF7E7FF04490968C1F3A9
:100F70004231034A515CC84000BD000008380240BD
:100F8000A82500082DE9F047002400250026A146E9
:100F90002548006800F00C0020B1042805D008287E
:100FA0003AD105E0DFF8849039E0DFF8849036E04C
:100FB0001D48001F006800F03F041B48001F006828
:100FC00000F4800078B11A481749091F0968C1F375
:100FD0008811A0FB01700146224600233846FFF726
:100FE00001F905460EE011480F49091F0968C1F3D0
:100FF0008811A0FB01700146224600233846FFF706
:10100000F1F805460848001F0068C0F30140401C85
:101010004600B5FBF6F902E0DFF8109000BF00BF14
:101020004846BDE8F0870000083802400024F4007C
:1010300040787D01F8B504460CB90120F8BD207850
:1010400000F00100002874D0F948006800F00C009E
:1010500004280DD0F648006800F00C00082813D1D1
:10106000F348001F006800F48000B0F5800F0BD13A
:10107000EF4808380068C0F34040002859D0606845
:10108000002856D10120D9E700BF6068B0F5803F45
:1010900008D1E7480838006840F48030E44908394E
:1010A00008601EE06068B0F5A02F0DD1E048083858
:1010B000006840F48020DE4908390860084600686E
:1010C00040F4803008600CE0D9480838006820F40B
:1010D0008030D749083908600846006820F480202D
:1010E000086000BF606890B1FFF79CFD054606E010
:1010F000FFF798FD401B642801D903209EE7CC48E8
:1011000008380068C0F340400028F1D011E0FFF734
:1011100089FD054606E0FFF785FD401B642801D9DF
:1011200003208BE7C24808380068C0F3404000281D
:10113000F1D1207800F0020002285FD1BC4800689D
:1011400000F00C0058B1BA48006800F00C00082804
:101150001CD1B748001F006800F48000B0B9B44843
:1011600008380068C0F3400020B1E068012801D0D1
:10117000012063E7AE480838006820F0F8002169D4
:1011800040EAC100AA490839086037E0E06800B3C6
:101190000120A8490860FFF745FD054606E0FFF776
:1011A00041FD401B022801D9032047E7A048083829
:1011B0000068C0F340000028F1D09D48083800685E
:1011C00020F0F800216940EAC10099490839086017
:1011D00014E0002097490860FFF724FD054606E06B
:1011E000FFF720FD401B022801D9032026E7904885
:1011F00008380068C0F340000028F1D1207800F0E2
:10120000080008282CD16069A8B101208A4908602B
:10121000FFF708FD054606E0FFF704FD401B022826
:1012200001D903200AE782486C300068C0F340000F
:101230000028F1D014E000207F490860FFF7F2FC9D
:10124000054606E0FFF7EEFC401B022801D903200B
:10125000F4E677486C300068C0F340000028F1D114
:10126000207800F00400042870D10026704838303F
:10127000006800F0805090B900BF002000906C48DA
:101280003830006840F080506949383108600846BD
:10129000006800F08050009000BF00BF0126674842
:1012A000006800F48070B0B96448006840F4807051
:1012B00062490860FFF7B6FC054606E0FFF7B2FC9E
:1012C000401B022801D90320B8E65C48006800F4FE
:1012D00080700028F2D000BFA068012808D15448CF
:1012E0006830006840F001005149683108601DE035
:1012F000A06805280DD14E486830006840F0040011
:101300004B49683108600846006840F001000860F9
:101310000CE047486830006820F00100444968311B
:1013200008600846006820F00400086000BFA0685C
:10133000A8B1FFF777FC054609E0FFF773FC401BF7
:1013400041F28831884202D9032077E626E0384806
:1013500068300068C0F340000028EED013E0FFF7CB
:1013600061FC054608E0FFF75DFC401B41F2883157
:10137000884201D9032061E62D4868300068C0F337
:1013800040000028EFD1012E07D1294838300068ED
:1013900020F0805026493831086000BFA069B8B3FA
:1013A0002348006800F00C0008285ED0A0690228DD
:1013B00046D100201F490866FFF734FC054606E0C9
:1013C000FFF730FC401B022801D9032036E61848FD
:1013D00008380068C0F340600028F1D1D4E9070163
:1013E0000843616A40EA81110122A06AC2EB500001
:1013F00041EA00412C20005D41EA00600C49091FD0
:10140000086001200B490866FFF70CFC054607E061
:101410002DE0FFF707FC401B022801D903200DE651
:10142000034808380068C0F340600028F1D01EE08F
:101430000838024000004742800E474200700040DA
:1014400000200C490866FFF7EDFB054606E0FFF7B4
:10145000E9FB401B022801D90320EFE5064800689C
:10146000C0F340600028F2D101E00120E6E5002051
:10147000E4E50000000047420038024070B5044631
:101480002546681EB0F1807F01D301200FE0681E61
:101490004FF0E02148610F214FF0FF3000F068FB72
:1014A00000204FF0E021886107200861002070BD16
:1014B0007047704710B504460CB9012010BD94F870
:1014C000390028B9002084F83800204600F00CF8D4
:1014D000022084F83900211D206800F0DDFB012086
:1014E00084F839000020E9E7704701460868C068C1
:1014F00040F001000A68D0600868006840F0010010
:101500000A68106000207047704710B504462068D4
:101510000069C0F34000D8B12068C068C0F3400043
:10152000B0B16FF0020021680861012020762068C8
:10153000806900F0030018B12046FFF7E5FF05E0E1
:10154000204600F0ADF8204600F0ABF800202076F1
:1015500020680069C0F38000D8B12068C068C0F37B
:101560008000B0B16FF0040021680861022020768D
:101570002068806900F4407018B12046FFF7C4FF6E
:1015800005E0204600F08CF8204600F08AF80020A4
:10159000207620680069C0F3C000D8B12068C06818
:1015A000C0F3C000B0B16FF00800216808610420EA
:1015B00020762068C06900F0030018B12046FFF7CC
:1015C000A3FF05E0204600F06BF8204600F069F824
:1015D0000020207620680069C0F30010D8B1206890
:1015E000C068C0F30010B0B16FF01000216808614E
:1015F000082020762068C06900F4407018B12046A9
:10160000FFF782FF05E0204600F04AF8204600F090
:1016100048F8002020762068006900F0010058B1E9
:101620002068C06800F0010030B16FF0010021684F
:101630000861204600F036F820680069C0F3C01049
:1016400058B12068C068C0F3C01030B16FF080009E
:10165000216808612046FFF72BFF20680069C0F36E
:10166000801058B12068C068C0F3801030B16FF0AE
:10167000400021680861204600F034F820680069C5
:10168000C0F3401058B12068C068C0F3401030B1BA
:101690006FF02000216808612046FFF70AFF10BDA7
:1016A0007047704710B50B49884205D10A4909684F
:1016B00081F48061084A11600849884208D10849CC
:1016C000D1E90041631C41F10001054AC2E9003142
:1016D00010BD000090000220141C0240CC0002202B
:1016E00018000020704710B504460CB9012010BD49
:1016F000A06900B100E000BF94F8390028B90020CB
:1017000084F83800204600F027F8242084F83900B7
:101710002068C06820F400502168C860204600F0AE
:101720003DFB2068006920F4904021680861206832
:10173000406920F02A00216848612068C06840F4B0
:1017400000502168C8600020E063202084F8390040
:1017500084F83A000020CAE7704700BFFEE70000A7
:1017600070B50446206806490840B0F1005F06D114
:1017700066683546206880F3088800BFA84770BDBA
:101780000000F02F10B50E48007800F00100A8B15D
:101790000B48006820F0010009490860084600680D
:1017A000C2080849084800F011F80548007800F020
:1017B0000700034908600448FFF7D2FF10BD00008E
:1017C0001000002090000020000006082DE9F047DE
:1017D00006460F4615460024B046B946144800EBAD
:1017E000950100F029F8A24618E0484600F0AEFE48
:1017F0002146621C94B20F4A42F8210009F1040903
:10180000B4F5007F08D100244FF400720949404626
:1018100000F086F808F500680AF1040AAA45E4D346
:1018200024B122460349404600F07AF8BDE8F0872B
:101830000000060830010220F8B506460C460020DC
:101840000090002700253046FEF79CFF0546204605
:10185000FEF798FF401B471C002008490860022043
:10186000086108468560C7606946FEF7FDFF10B154
:101870004FF0FF30F8BD0020FCE700001C01022003
:101880002DE9F04105460E4617462C4605EB870824
:10189000FFF798F841462846FFF7CEFF0EE056F8CE
:1018A00004CB6246002321460220FFF73FF808B927
:1018B000241D03E04FF0FF30BDE8F0814445EED336
:1018C000FFF72AF800BFF7E770B50B4600EB82057B
:1018D00001461C4602E00E6840C4091DA942FAD325
:1018E00070BD000000B5A9B0502101A8FEF7B2FC00
:1018F000002004E015A941F82000411CC8B21428BA
:10190000F8DB142215A90548FFF7BAFF142201A934
:101910000248FFF7D9FF29B000BD0000000002080F
:101920002DE9F04105460E4617462C4605EB870883
:10193000FFF748F80EE056F804CB62460023214634
:101940000220FEF7F3FF08B9241D03E04FF0FF303B
:10195000BDE8F0814445EED3FEF7DEFF00BFF7E7B8
:1019600000B587B000BF002001902748006840F014
:101970008000254908600846006800F0800001905A
:1019800000BF00BF00BF002001900846006840F083
:10199000800008600846006800F08000019000BFE9
:1019A00000BF00BF002001900846006840F08000A2
:1019B00008600846006800F08000019000BF00BF8A
:1019C000081502900120039004900320059002A9BD
:1019D0000E48FFF711F84FF40060029002A90B487F
:1019E000FFF70AF84FF48050029002A90748FFF76A
:1019F00003F84FF480600549183108604000086022
:101A00004000086007B000BD30380240001C0240B2
:101A10001CB500F053F80B4800F024FD00200A49E3
:101A20004FF4FA720346CDE90010084800F022FD99
:101A30000020074905220346CDE90010054800F0C3
:101A400019FD1CBD790700082D1B00083009022074
:101A50007D1D00084809022000BFFEE710B5FEF713
:101A600061FC0A480378012209490A4800F0B1FCE8
:101A7000094A0321074800F088FB084A0421054869
:101A800000F083FB034800F0C3FC10BD2C000020D5
:101A9000752500087809022005030008F1020008F6
:101AA00010B50548006820F00100401C024908609C
:101AB000FFF768FE10BD00001000002010B500F018
:101AC0002BF800F001F810BD08B500BF0020009011
:101AD0000E48006840F020000C4908600846006885
:101AE00000F02000009000BF00BF094809490860CD
:101AF00001210848C1604AF20F4006494860084683
:101B0000FFF7D8FC0348FFF7F0FC08BD403802405F
:101B100000140040CC00022010B503220021372021
:101B2000FFF7C5F83720FFF7B5F810BD1CB5094819
:101B3000006880F48050074908600020AFF213016C
:101B40004FF4FA720346CDE90010034800F092FC0E
:101B50001CBD0000141C0240300902207047000028
:101B600002480068C0F30220704700000CED00E05E
:101B700010B5002807DA0A07140E054A00F00F0313
:101B80001B1FD45403E00A07130E024A135410BD5E
:101B900018ED00E000E400E070477047704710B5B2
:101BA000FFF746F810BD10B592B000240120019057
:101BB0000004029002200790410508911921099123
:101BC0004FF4B4710A9102210B9107210C9101A8E5
:101BD000FFF730FA04460CB100BFFEE7FFF7A6F8A6
:101BE00004460CB100BFFEE70F200D9002200E90BE
:101BF00000200F904FF4A05010904FF4805011909F
:101C000005210DA8FFF7D8F804460CB100BFFEE788
:101C100012B010BD1448006840F47000124908600A
:101C20001248006840F001001049086000200F4988
:101C3000083108600D4800680D4908400B490860EC
:101C40000C48091D0860081F006820F48020091F47
:101C50000860002005490C3108604FF0006002491F
:101C6000803908607047000088ED00E000380240CD
:101C7000FFFFF6FE1030002410B50248FFF745FCC8
:101C800010BD00009000022010B50248FFF73DFC97
:101C900010BD0000CC000220002202682C4B9842AC
:101CA0000ED0B0F1804F0BD02A4B984208D02A4B6F
:101CB000984205D0294B984202D0294B984201D135
:101CC000012300E000231BB122F070024B681A438D
:101CD0001F4B984220D0B0F1804F1DD01D4B984231
:101CE0001AD01D4B984217D01C4B984214D01C4B55
:101CF000984211D01B4B98420ED01B4B98420BD0F0
:101D00001A4B984208D01A4B984205D0194B98426A
:101D100002D0194B984201D1012300E000231BB1EE
:101D200022F44072CB681A4302608B68C3620B686E
:101D30008362074B984202D0094B984201D101239C
:101D400000E000230BB10B6903630123436170477B
:101D5000000001400004004000080040000C00406A
:101D6000000401400040014000440140004801409F
:101D700000180040001C0040002000401CB500F08E
:101D80005DFB0020AFF20B0105220346CDE90010F8
:101D9000014800F06FFB1CBD480902202DE9F0410D
:101DA000044600252068056925F44055E068054390
:101DB000206805612068C56849F20C608543216987
:101DC000A068084361690843E16908430543206846
:101DD000C5602068456925F44075A0690543206801
:101DE0004561E069B0F5004F7ED1C4492068884262
:101DF00003D0C349206888425DD1FFF7B3F800EBF8
:101E0000C00101EB001061684900B0FBF1F06421F2
:101E1000B0FBF1F00601FFF7A5F800EBC00101EB04
:101E2000001061684900B0FBF1F7FFF79BF800EB89
:101E3000C00101EB001061684900B0FBF1F06421C2
:101E4000B0FBF1F000EBC00101EB0010A7EB80004C
:101E5000322101EBC0006421B0FBF1F000F0F8008A
:101E600006EB4006FFF77EF800EBC00101EB001027
:101E700061684900B0FBF1F7FFF774F800EBC001AF
:101E800001EB001061684900B0FBF1F06421B0FB88
:101E9000F1F000EBC00101EB0010A7EB8000322154
:101EA00001EBC0006421B0FBF1F000F0070030440A
:101EB0002168886020E1FFF745F800EBC00101EBE5
:101EC000001061684900B0FBF1F06421B0FBF1F053
:101ED0000601FFF737F800EBC00101EB0010616865
:101EE0004900B0FBF1F700E045E0FFF72BF800EB0D
:101EF000C00101EB001061684900B0FBF1F0642102
:101F0000B0FBF1F000EBC00101EB0010A7EB80008B
:101F1000322101EBC0006421B0FBF1F000F0F800C9
:101F200006EB4006FFF70EF800EBC00101EB0010D6
:101F300061684900B0FBF1F7FFF704F800EBC0015E
:101F400001EB001061684900B0FBF1F06421B0FBC7
:101F5000F1F000EBC00101EB0010A7EB8000322193
:101F600001EBC0006421B0FBF1F000F00700304449
:101F700021688860C0E061492068884203D06049D8
:101F8000206888425CD1FEF7EDFF00EBC00101EB59
:101F9000001061688900B0FBF1F6FEF7E3FF00EB8B
:101FA000C00101EB001061688900B0FBF1F0642111
:101FB000B0FBF1F000EBC00101EB0010A6EB8000DC
:101FC000322101EB00106421B0FBF1F000F0F006CB
:101FD000FEF7C8FF00EBC00101EB0010616889004B
:101FE000B0FBF1F06421B0FBF1F006EB0016FEF758
:101FF000B9FF00EBC00101EB001061688900B0FB84
:10200000F1F7FEF7AFFF00EBC00101EB00106168D4
:102010008900B0FBF1F06421B0FBF1F000EBC001EE
:1020200001EB0010A7EB8000322101EB00106421CE
:10203000B0FBF1F000F00F003044216888605BE0F5
:10204000FEF780FF00EBC00101EB00106168890022
:10205000B0FBF1F6FEF776FF00EBC00101EB0010DC
:1020600061688900B0FBF1F06421B0FBF1F000EB96
:10207000C00101EB0010A6EB8000322101EB001043
:102080006421B0FBF1F000F0F006FEF75BFF00EB1F
:10209000C00101EB001061688900B0FBF1F0642120
:1020A000B0FBF1F006EB0016FEF74CFF00EBC001B1
:1020B00001EB001061688900B0FBF1F7FEF742FF09
:1020C00000EBC00101EB001061688900B0FBF1F08A
:1020D0006421B0FBF1F000EBC00101EB0010A7EBB5
:1020E0008000322101EB00106421B0FBF1F000F020
:1020F0000F00304421688860BDE8F0810010014085
:10210000001401401CB50024124800680068C0F3A8
:102110004010E8B10F4800684068C4B200200E4982
:102120004FF4FA620346CDE900100C4800F0A2F922
:102130000B480068C1080A480068012202EBD0027F
:102140000748006862F3DF00054A10600548445400
:102150001CBD000050000020A11A000860090220E8
:10216000100000209000002000BFFEE702E008C839
:10217000121F08C1002AFAD170477047002001E001
:1021800001C1121F002AFBD1704700F10C0343F874
:102190002120704770B504462079A168884705461C
:1021A000E07800F00700002802DD2088401C208035
:1021B000E078B5EBD01F13D0E078C008401CE17880
:1021C00060F3C501E170C1F3C20003280CDBE078C5
:1021D00065F3C710E070E07820F03800E07003E0AD
:1021E000E07820F03800E070E07800F00700062882
:1021F00076D2DFE800F00326529DE7C6E078C0F310
:102200008010E178B0EBD11F15D1A07820F0F0005C
:10221000A070E06810B12046E16888470020208067
:10222000A07820F00F00401CA070E07820F007009C
:10223000401CE07004E0A07820F0F0008030A07036
:10224000C5E0E078C0F38010E178B0EBD11F11D089
:10225000A07820F0F0001030A070206910B1204666
:102260002169884700202080E07820F00700801C4A
:10227000E07011E02088C8280EDDA07820F0F00082
:102280005030A070206A10B12046216A8847E0785B
:1022900020F00700401DE07099E0E078C0F3801066
:1022A000E178B0EBD11F1CD1A07820F0F000A07035
:1022B000E06810B12046E1688847A078401CA1780A
:1022C00060F30301A170606910B12046616988471D
:1022D00000202080E07820F00700C01CE07026E09D
:1022E00070E020883C2822DDA07800F00F00012853
:1022F0000AD1A07820F0F0003030A070A06990B131
:102300002046A16988470EE0A07800F00F0002285F
:1023100009D1A07820F0F0004030A070E06910B141
:102320002046E1698847E07820F00700E0704EE041
:10233000E078C0F38010E178B0EBD11F19D0A0781D
:1023400020F0F0001030A070206910B12046216903
:10235000884720883C2807DA00202080E07820F099
:102360000700801CE0700BE0E07820F00700E070D0
:1023700006E020883C2803DDE07820F00700E070CC
:1023800025E0E078C0F38010E178B0EBD11F0AD1EE
:10239000A07820F0F0006030A070606A88B120461C
:1023A000616A88470DE0A07820F0F0001030A0703E
:1023B000206910B1204621698847E07820F00700A5
:1023C000E07004E0E07820F00700E07000BF00BF9C
:1023D00070BD2DE9F04104460E4617461D462C21DE
:1023E0002046FDF737FFA07820F0F0008030A07085
:1023F000A6602846A1688847E17860F3C711E170BC
:10240000E07867F38610E0702571BDE8F081000088
:1024100001460948026805E08A4202D14FF0FF30C8
:102420007047926A002AF7D1034800688862024820
:1024300001600020F4E700002800002010B50548E6
:10244000046803E02046FFF7A5FEA46A002CF9D13A
:1024500010BD000028000020FDF738FF01E000F06B
:1024600051F8FCE701460248016000207047000077
:10247000240000202DE9F047044616461F46DDE9FA
:10248000088914B1B8F1000F03D14FF0FF30BDE857
:10249000F0871A4D08E02868A04202D12069286020
:1024A00005E0286800F1100528680028F3D100BF76
:1024B00013480068804780197941C4E90001C4F8D5
:1024C0000880C4F80C900D4D00BF286818B9002092
:1024D00020612C600EE0D4E900302A6806CA591A3F
:1024E000904103D2286820612C6003E0286800F145
:1024F0001005EAE700BF0020C9E700002000002027
:102500002400002010B50F48046817E00E4800684A
:102510008047D4E90032C01A914105D20A480068C8
:1025200080472168081A10BD064920690860A06824
:1025300018B12046D4E9022190472469002CE5D146
:102540000020F0E7200000202400002008B502460B
:10255000114611F8010B8DF8000011F8010B8DF8F0
:10256000010011F8010B8DF8020008788DF80300C6
:10257000009808BD70B50446012C05D1012105481D
:10258000FEF748FB054601E0002070BD00BF28466D
:10259000FBE7000000000240000000000000000017
:1025A00001020304060708090000000001020304F9
:1025B00078563412D42500080000002030000000B6
:1025C0006C2100080426000830000020780D02006D
:1025D0007C2100080024F40000000000100000002E
:1025E00001000000000000000000000000000000EA
:1025F00000000000000000000000000000000000DB
:0426000001000000D5
:04000005080001AD41
:00000001FF
