:020000040800F2
:10000000F88B02207D0200082524000851220008F8
:1000100011240008DD060008B52F00081211111187
:10002000000000000000000000000000C501000802
:10003000E50600080000000019020008212A000857
:10004000970200089702000897020008970200082C
:100050009702000897020008650A00089702000846
:10006000970200089702000897020008970200080C
:1000700097020008970200089702000897020008FC
:1000800097020008970200089702000897020008EC
:1000900097020008970200089702000897020008DC
:1000A00097020008970200089702000897020008CC
:1000B00097020008970200089702000897020008BC
:1000C00097020008970200089702000897020008AC
:1000D000970200086D2F0008970200089702000899
:1000E000970200089702000897020008970200088C
:1000F000970200089702000897020008970200087C
:10010000970200084D240008970200089702000893
:100110009702000897020008A12B0008AD2B0008E9
:10012000970200089702000897020008E1060008FD
:10013000970200084108000897020008970200088B
:10014000970200089702000897020008970200082B
:1001500097020008E30600089702000897020008CB
:10016000970200089702000897020008970200080B
:10017000970200089702000897020008000000009C
:1001800097020008970200089702000897020008EB
:1001900097020008970200089702000897020008DB
:1001A000970200089702000897020008DFF810D0B5
:1001B00000F05CF90048004791690008AFF3008047
:1001C000F88B02202A4B19680868B0E8F04F80F3DA
:1001D0000988BFF36F8F4FF0000080F311887047DC
:1001E0000000000006480068006880F3088862B6D6
:1001F00061B6BFF34F8FBFF36F8F00DF00BF00BF4B
:1002000008ED00E0DFF80C00016841F470010160C6
:10021000704700BF88ED00E0EFF30980BFF36F8FF8
:10022000134B1A681EF0100F08BF20ED108A20E94A
:10023000F04F106008B44FF0500080F31188BFF306
:100240004F8FBFF36F8F0DF04FF94FF0000080F329
:10025000118808BC19680868B0E8F04F1EF0100F4C
:1002600008BFB0EC108A80F30988BFF36F8F704726
:1002700068010020EFF305807047000006488047C2
:1002800006480047FEE7FEE7FEE7FEE7FEE7FEE77B
:10029000FEE7FEE7FEE7FEE7A92A0008AD01000839
:1002A0002DE9F05F0546002092469B4688460646AB
:1002B000814640241BE0284641464746224600F03E
:1002C000C5F853465A46C01A914110D311461846F4
:1002D000224600F0ACF82D1A67EB01084F46224683
:1002E0000120002100F0A3F817EB00094E41201E69
:1002F000A4F10104DFDC484631462A464346BDE806
:10030000F09F000000487047901708080649074A08
:100310000868504343F239021044086040087047AF
:100320000149086070470000C80100206D4EC641B9
:1003300010B5431A934209D28318881803E010F8C5
:10034000011D03F8011D521EF9D210BD40EA010340
:100350009B0703D009E008C9121F08C0042AFAD27B
:1003600003E011F8013B00F8013B521EF9D210BD29
:10037000D2B201E000F8012B491EFBD270470022E7
:10038000F6E710B513460A4604461946FFF7F0FF94
:10039000204610BD30B505462A460B4612F8010B23
:1003A00013F8014B08B1A042F8D01CB1002802D0CC
:1003B0006D1CF1E7284630BDCAB2401E10F8011F7F
:1003C0008A4202D00029F9D100207047421C10F85F
:1003D000011B0029FBD1801A704710B5002200E0F4
:1003E000521C835C8C5CA34201D1002BF8D1D8B2A3
:1003F000E1B2401A10BD30B504460020034600E0CB
:100400005B1C934203D2E05CCD5C401BF8D030BD56
:1004100030B505460020034600E05B1C934205D240
:10042000EC5CC85C201A01D1002CF6D130BD202A2A
:1004300004DB203A00FA02F1002070479140C2F13B
:10044000200320FA03F3194390407047202A04DB6D
:10045000203A21FA02F00021704721FA02F3D0403D
:10046000C2F120029140084319467047064C074DDF
:1004700006E0E06840F0010394E807009847103474
:10048000AC42F6D3FFF796FE90190808B019080899
:1004900070B58C1810F8015B15F0070301D110F846
:1004A000013B2A1106D110F8012B03E010F8016B73
:1004B00001F8016B5B1EF9D12B0705D40023521EF6
:1004C0000DD401F8013BFAE710F8013BCB1A921C5E
:1004D00003E013F8015B01F8015B521EF9D5A1425C
:1004E000D8D3002070BD70471CB502F007FB04F0A4
:1004F00079FD04F0D9FD04F06FFD0CF059FD0121E8
:1005000013484C02CDE900100023224611A11448E3
:100510000DF0D0FB012802D112A002F04DFD0C48D5
:100520000221001DCDE900100023224615A1184824
:100530000DF0C0FB012802D116A002F03DFD0448D9
:10054000001F00680CF07AFEBDE81C400CF06ABD8C
:100550002C00002054657374315F5461736B00008C
:10056000BD2B000843726561746520546573743156
:100570005F5461736B207375636573732E2E2E0D3C
:100580000A00000054657374325F5461736B00009D
:10059000D92B000843726561746520546573743209
:1005A0005F5461736B207375636573732E2E2E0A0F
:1005B0000A00000008461146024601A000F00ABBEE
:1005C000424545500000000010B502F03EFA00F030
:1005D00017FB01F0DDFE00F0A3F803A000F0E4F843
:1005E000BDE8104002F06EB9D5E2CAC74D5055368D
:1005F000303530B2E2CAD4B3CCD0F20A00000000E9
:100600001CB5214800F0B8FB00F02EFA1F48016825
:1006100041F00101016002208DF8000000218DF8F9
:1006200001108DF802108DF803108DF804108DF86C
:1006300005101548164A0260012242600182C0F886
:1006400014D08261C161D105016249128160C91073
:10065000C16000F029FC04468CB10EA002F0ACFC95
:100660000823134A1349084800F049FB124A08239B
:10067000A2F50071044800F00BFB20461CBD0FA042
:1006800002F09AFCECE700004C03002000900240CE
:1006900000800240657468206861726477617265E9
:1006A00020696E6974206661696C642E2E2E0A00C2
:1006B00034350020940400209405002065746820DF
:1006C000686172647761726520696E697420737500
:1006D000636573732E2E2E0A0000000000BEFDE736
:1006E000704770477047000010B50C4C0A482060F6
:1006F0004FF4E13060600020A060E0602061A06104
:100700000C206061204601F00AFD2068C16841F0BC
:100710002001C16010BD000000100140D001002088
:1007200030B587B01E48016841F0100101600068D3
:1007300000F0100001901A481438016841F00101DE
:100740000160016801F001010191016841F00101BE
:100750000160006800F0010001904FF40070029009
:1007600002200390012004900320059007240694A2
:100770000C4D02A9284600F03BFF29150291069472
:1007800002A9284600F034FF01220021252001F0B3
:1007900069F8252001F05AF8FFF7A6FF07B030BD31
:1007A000443802400000024070B5054600244FF472
:1007B0007A76291933460122034801F0E3FC641CD0
:1007C000285D0028F5D170BDD0010020006800F53B
:1007D0008050816941F0020181617047006800F535
:1007E0008050816941F400518161704708B5074923
:1007F0004FF4FA520968B1FBF2F14143009100BF96
:100800000098411E0091FAD208BD000000000020AF
:1008100038B50446206800F58050816941F48011A4
:100820008161206800F58050806900900120FFF709
:10083000DDFF2068009900F58050816138BD00001F
:1008400010B55020EFF3118480F31188BFF34F8F60
:10085000BFF36F8F024800F0E6FA84F3118810BDF1
:100860004C0300201079537940EA032307480844D9
:1008700003641178D37841EA0361937852781B04BA
:1008800043EA0222114341647047000000800240A5
:100890002DE9F041AEB00446002904D04FF40060C9
:1008A000E060C000A0600025119512951395149585
:1008B00015951695E06900287DD017954FF40070C6
:1008C000189019951A951B951C951D9540271E97F4
:1008D0001F9520952195229523952495259526955C
:1008E00080262796289529952A952B952C952D9528
:1008F0002068026845490A40D4E902131943179B4E
:10090000194341F40071114301602068D0F8008060
:10091000012000F0ABF92068C0F800802068476033
:1009200020684768012000F0A1F92068476020682E
:1009300085602068C560206881694FF6417211406A
:1009400041F08001816120688769012000F08EF903
:10095000206887612068C5612068C769012000F0B0
:1009600085F92068C7610195B004029003950111D3
:1009700004910595069507950895042109910A901B
:1009800040120B9080010C9040120D900E960F9526
:100990001095206800F5805081691D4A11401D4A5C
:1009A0000A438261206800F580508569012000F0CB
:1009B0005DF9206800E016E000F580508561206850
:1009C000154900F580500160206800F580500568E9
:1009D000012000F04BF9206800F580500560A06907
:1009E000012804D00AE04FF48060179066E7206881
:1009F00000F58050C169094A1143C16162692EB096
:100A00002046BDE8F0410021FFF72CBF0F8120FFF9
:100A1000233FDEF8040020028020C10240000100D4
:100A200038B504462068016841F00401016020687F
:100A3000006800900120FFF7D9FE21680098086047
:100A400038BD38B504462068016841F008010160EE
:100A50002068006800900120FFF7C8FE2168009818
:100A6000086038BD7047000010B586B012480168B4
:100A700041F480710160006800F4807000900120F2
:100A8000029003900220049001900C4C01A9204692
:100A900000F0AEFD00220221204600F0A0FE05205D
:100AA00000F0E4F801220221204600F098FE052023
:100AB00000F0DCF806B010BD3038024000200240E3
:100AC00030B5D1E901231A43D1E9033423431A4352
:100AD0004B690D681A438B691A43D1E90734496A97
:100AE000012D08D005686FF30E051A4322430A430F
:100AF0002A4302600BE0056825F4F84523432943A7
:100B00000B4341686FF30E010A430360426000200B
:100B100030BD426942EA4101416100207047F8B5A9
:100B200006461446D1E9000210438A68C968521E7D
:100B3000520142EA4121084300900098306100F0E0
:100B400055FE054609E0601C07D024B100F04EFEBA
:100B5000401BA04201D90320F8BDB0698006F2D441
:100B60000020F8BDF0B50C684B68641E5B1E44EABB
:100B700003148B684D695B1E44EA0326CB680C693D
:100B800089695B1E641E6D1E491E012A0DD0826894
:100B900002F0704246EA033343EA044343EA055352
:100BA00043EA01611143816010E08268084F3A40D6
:100BB0001B0343EA05531343C26802F0704246EA3E
:100BC000044444EA016111438360C1600020F0BD28
:100BD000FF0F0FFF2DE9F04107460D461646002492
:100BE00006E055F824103846FFF7F7FB30B1641CD7
:100BF000B442F6DB4FF0FF30BDE8F0812046FBE762
:100C000008B51948016841F080010160016801F0F0
:100C100080010091016841F004010160016801F068
:100C200004010091016841F001010160016801F0D7
:100C300001010091016841F002010160016801F0C9
:100C400002010091016841F040010160016801F07A
:100C500040010091016841F480710160006800F476
:100C60008070009008BD00003038024070B5044626
:100C700000F0BCFD0546601C02D004480078044426
:100C800000F0B4FD401BA042FAD370BD0400002068
:100C9000F0B5002490F84550012D09D0012780F8C7
:100CA0004570022580F84450816244F2F45C19E0FA
:100CB0000220F0BD01EB44154FF000462E60C5F850
:100CC00004C0C4EBC41606EB460602EB8606AE6013
:100CD00086695E1EB44203D205F12006EE6000E094
:100CE000E960641C9C42E5D3026802F58052D16041
:100CF00080F84470002180F845100020F0BD2DE9F7
:100D0000F043002590F84540012C0BD04FF0010C2A
:100D100080F845C0022480F84440C1624FF4801836
:100D20005F1E1CE00220BDE8F08301EB4514C4F80F
:100D30000080C5EBC51606EB460602EB8606A660EC
:100D4000C66926B9266846F44009C4F80090BD4239
:100D500003D204F12006E66000E0E1606D1C9D42D4
:100D6000E3D3026802F58052116180F844C000218B
:100D700080F845100020D6E710B50446022084F81C
:100D80004400204600F0ACF9002004F8440F6070E5
:100D900010BD000001A002F00FB9000065746820CA
:100DA0006572720A0000000010B590F84510012924
:100DB00013D0012380F84530022180F84410816A65
:100DC0000A680024002A29DB0A68D20518D5826B3C
:100DD000521C8263012A02D002E0022010BD01638E
:100DE0002830C1600A68C2F30D42121F4261826856
:100DF00092688261C968016003774477002010BD62
:100E00000A68920505D5016344638363C9688162FA
:100E100004E0826B521C8263C968816200F8443F1F
:100E20004470012010BD70B50446206800F5805064
:100E300041694FF0000649064FF001050CD52046E8
:100E400000F026FA2068402100F58050416184F8C6
:100E5000445084F845600DE04069C0070AD0204640
:100E600000F0D9FA206800F58050456184F84450BC
:100E700084F8456020684FF4803100F5805041616E
:100E8000206800F58050406900040CD52046FFF72B
:100E900081FF20684FF4004100F58050416184F8E3
:100EA000445084F8456070BD2DE9FC4704464FF07E
:100EB0000008CDF80480C146002C03D094F844000B
:100EC00018B107E00120BDE8FC8784F84580204682
:100ED00000F03AF97848016841F480410160006807
:100EE00000F4804000907548016821F40001016021
:100EF0000168226A11430160206800F58050016892
:100F000041F00101016000F071FC05464FF4FA76F2
:100F10000AE000F06BFC401BB04205D9032084F8C6
:100F2000440084F84580CEE7206800F580500068D2
:100F3000C007EED12068006920F01C0500F08EFD8E
:100F40005F49604A0144914202D245F0080516E02B
:100F50005D495E4A0144914202D245F00C050EE023
:100F60005B495C4A0144914209D35B4908445B49AF
:100F7000884202D245F0040501E045F010052068E2
:100F800005614FF400420021204600F045FA01259A
:100F900038B101212046FFF77BFC84F84450012042
:100FA00091E70520FFF762FE6068E0B300F01EFCE9
:100FB000074641F2883601AA0121204600F026F9B1
:100FC00000F014FCC01BB04209D901212046FFF7F4
:100FD0005FFC84F8445084F84580032073E701984F
:100FE0004007E8D54FF480520021204600F014FA63
:100FF00038B101212046FFF74BFC84F84450012012
:1010000061E700F0F3FB074601AA0121204600F04A
:10101000FDF800F0EBFBC01BB0420BD901212046CC
:10102000FFF736FC00E028E084F8445084F845805F
:10103000032048E701988006E6D501AA1F21204633
:1010400000F0E4F838B101212046FFF721FC84F8D4
:101050004450012037E70198C10603D54FF40061E1
:10106000E16001E0C4F80C80400702D5C4F80880B4
:101070001AE04FF48040A06016E0E0680021C0F361
:10108000CF02A068C0F34F000243204600F0C4F92D
:1010900038B101212046FFF7FBFB84F844500120C2
:1010A00011E70520FFF7E2FD49462046FFF7F0FB78
:1010B00084F84450002006E74438024004380140D8
:1010C00000D3CEFEC0E1E40040F1E9FD40787D01AF
:1010D00000796CFC005A6202001F0AFA80F0FA02E2
:1010E00010B500681249884220D11248016821F0E9
:1010F00080610160016821F000610160016821F0F8
:101100000071016032210C4800F0C4F986210B48BF
:1011100000F0C0F94FF40061094800F0BBF9BDE8E8
:1011200010404FF4C041074800F0B4B910BD0000B2
:1011300000800240303802400008024000000240B7
:101140000004024000180240F0B587B00068294949
:1011500088424CD132200290022403940025049549
:10116000032605960B27069702A9234800F040FAAC
:1011700086200290039404950596069702A91F48BD
:1011800000F036FAA00202900394049505960697A3
:1011900002A91B4800F02CFA7003029003940495F6
:1011A0000596069702A9174800F022FA00220621A8
:1011B0003D2000F057FB3D2000F048FB124801683D
:1011C00041F000710160016801F000710191016856
:1011D00041F080610160016801F080610191016866
:1011E00041F000610160006800F00060019007B00C
:1011F000F0BD0000008002400008024000000240F4
:101200000004024000180240303802402DE9F04747
:101210000446914694F8440082281DD0822084F828
:1012200044002068026902F01C03228A4FF6FF7511
:1012300005EAC2221A434FF4F86303EA811111430D
:1012400021F0020141F00105056100F0CFFA0646E8
:1012500001274FF480380FE00220BDE8F08700F04E
:10126000C5FA801B404505D304F8447F0020607018
:101270000320F2E720680569E807F0D1206840699B
:1012800080B2C9F8000084F844700020E5E700004F
:1012900008B5002000900848694600680CF062FC20
:1012A0000098002807D005494FF080500860BFF330
:1012B0004F8FBFF36F8F08BD1C01002004ED00E0CD
:1012C00070B5044694F84500012819D0012584F82A
:1012D0004550022084F844002046FFF7B2FB204628
:1012E000FFF79EFB2046FFF793FA2046FFF776FABA
:1012F0002046FFF76BFA04F8445F0020607070BD71
:10130000022070BDF0B5002390F84520012A11D0CD
:10131000012780F84570022280F84420002659B148
:10132000C46A2268002A0CDA122100F8441F4670B1
:101330000120F0BD0220F0BD00F8447F467001207E
:10134000F0BD40F2F455A9420AD9B1FBF5F2B1FB68
:10135000F5FC05FB1C1CBCF1000F02D0521C00E088
:101360000122012A44D1226842F040522260C26A1E
:10137000C1F30C015160C16A0A6842F000420A6080
:10138000C16AC968C16235E0C46AD4F800C02CF0F3
:10139000405CC4F800C033B9C46AD4F800C04CF053
:1013A000805CC4F800C0C46A6560541EA34214D1B6
:1013B000C46AD4F800C04CF0005CC4F800C0C2F1AC
:1013C0000104C4EBC41404EB440401EB8404D0F81E
:1013D0002CC0C4F30C04CCF80440C46AD4F800C098
:1013E0004CF0004CC4F800C0C46AE468C4625B1CE2
:1013F0009342C9D3016801F580514A69520705D566
:1014000004224A61016801F580514E6000F8447F72
:1014100046700020F0BD70472DE9F041044694F875
:101420004400422820D0422084F844002068036908
:1014300003F01C03258A4FF6FF7606EAC5251D43F7
:101440004FF4F86303EA8111294341F0020141F0AE
:10145000010591B241612068056100F0C7F90646B7
:1014600001274FF480380FE00220BDE8F08100F042
:10147000BDF9801B404505D304F8447F002060700F
:101480000320F2E720680569E807F0D184F844708A
:10149000EBE700002DE9F04F0023DFF824814FF047
:1014A000010C0F270CFA03F201EA020494427DD1E9
:1014B00006684FEA4309032505FA09F5AE430660BD
:1014C000DE0800EB8609D9F820A05E074FEAD66B4C
:1014D00007FA0BFB2AEA0B0A3E46C9F820A0D0F80F
:1014E000089029EA0509C0F80890D0F8049029EA84
:1014F0000209C0F80490C268AA43C26023F0030244
:1015000002EB0805D5F808284FEA83794FEA1979E4
:1015100006FA09F606EA020A2A4A904201D1002296
:101520002DE0294A904201D1012228E0274A904229
:1015300001D1022223E0264A904201D103221EE07B
:10154000244A904201D1042219E0234A904201D159
:10155000052214E0214A904201D106220FE0204AE0
:10156000904201D107220AE01E4A904201D108228E
:1015700005E01D4A904201D1092200E00A2202FA48
:1015800009F2524516D1D5F80828B243C5F8082803
:10159000164A1568A5431560121D1568A543156008
:1015A000121D1568A5431560121D00E002E01568C4
:1015B000A54315605B1C102BFFF474AFBDE8F08FE2
:1015C00000300140000002400004024000080240D8
:1015D000000C0240001002400014024000180240BB
:1015E000001C02400020024000240240003C014058
:1015F0002DE9F84F0022DFF8A491DFF8A08109F16E
:1016000008094FF0010E4FF00F0C09F1040A0EFA11
:1016100002F60B683340B34271D14C68022C01D002
:10162000122C11D1D40800EB84073D6A5407E40E54
:101630000CFA04FB25EA0B05D1F810B00BFA04FBF9
:101640004BEA050BC7F820B0076854000325A540F6
:10165000AF4391F804B00BF0030B0BFA04FB4BEA19
:10166000070BC0F800B04F68012F05D0022F03D040
:10167000112F01D0122F11D18768AF43D1F80CB0D0
:101680000BFA04FB4BEA070BC0F808B04768B743F6
:101690000E79C6F3001696403E434660C668AE43D8
:1016A0008D68A5403543C5604C68E4006FD53C4C5F
:1016B000256845F480452560246804F4804400943E
:1016C000384C22F003052544D5F808789407260FF6
:1016D0000CFA06F4A743344CA04201D100242EE0BA
:1016E000324CA04201D1012429E0314CA04201D169
:1016F000022424E02F4CA04202D103241FE046E044
:101700002D4CA04201D1042419E02C4CA04201D15F
:10171000052414E02A4CA04201D106240FE0294CF4
:10172000A04201D107240AE0274CA04201D108249D
:1017300005E0264CA04201D1092400E00A24B4406F
:101740003C43C5F80848D8F800409C434D68ED0379
:1017500000D51C43C8F80040104D2D1D2C689C433B
:101760004E68B60300D51C432C60D9F800409C435A
:101770004D68ED0200D51C43C9F80040DAF800407E
:101780009C434D68AD0200D51C43CAF80040521C72
:10179000102AFFF43CAFBDE8F88F0000003C014088
:1017A0004438024000300140000002400004024082
:1017B00000080240000C02400010024000140240E9
:1017C00000180240001C0240002002400024024099
:1017D0000069084201D00120704700207047002AAC
:1017E00001D08161704709048161704701488068B8
:1017F000704700000400002002488168027811440C
:10180000816070470400002070B504460D4D4FF410
:101810007A712878B1FBF0F00B490968B1FBF0F060
:1018200000F092FB08B1012070BD102C07D20022FD
:101830002146501E00F016F86C60002070BD01209B
:1018400070BD0000040000200000002000F01F0216
:10185000012191404009800000F1E020C0F8001112
:1018600070470000F0B40D460D4B1B68C3F3022314
:10187000C3F10704042C00D90424191D072901D23F
:10188000002300E0DB1E012606FA04F1491E294070
:1018900099409E40761E16403143F0BC00F0C4BD16
:1018A0000CED00E02DE9F8431848016841F0805143
:1018B0000160006800F080500090DFF8548001273C
:1018C000C8F84070FFF792FF05464FF47A76114C46
:1018D00007E0FFF78BFF401BB04202D90320BDE8B1
:1018E000F8836068C003F4D5C8F84470FFF77EFF42
:1018F000054606E0FFF77AFF401BB04201D90320FE
:10190000EDE760688003F5D50020E8E74038024045
:1019100000000E42007000402DE9F04704460D46DD
:10192000002C13D0DFF82491D9F80000EFB200F0BA
:101930000F00A8420CD289F80070D9F8000000F01E
:101940000F00A84204D00120BDE8F0870120FBE78A
:1019500020683F4E810712D5400703D5306840F418
:10196000E05030602078000703D5306840F46040D4
:1019700030603068A16820F0F000084330602078C3
:10198000C00731D0324960680839012808D00228E0
:101990000BD0032809D0096889070BD40120D3E7AD
:1019A0000968890306D40120CEE70968890101D4BA
:1019B0000120C9E7316821F0030101433160FFF7DD
:1019C00015FF804641F2883A07E0FFF70FFFA0EBD2
:1019D0000800504501D90320B6E73068616800F07F
:1019E0000C00B0EB810FF0D1D9F8000000F00F002F
:1019F000A84209D989F80070D9F8000000F00F005A
:101A0000A84201D001209FE72078400705D5306823
:101A1000E16820F4E050084330602078000706D5E4
:101A20003068216920F4604040EAC100306000F075
:101A30003BF83168074AC1F30311515CC8400649BD
:101A400008600F20FFF7E0FE00207DE7003C024029
:101A50000838024074E000080000002001480068D7
:101A6000704700000000002000B5FFF7F7FF0449B1
:101A70000968044AC1F38221515CC84000BD0000DE
:101A80000838024084E0000800B5FFF7E7FF04498A
:101A90000968044AC1F34231515CC84000BD0000EE
:101AA0000838024084E0000810B51748006810F0BC
:101AB0000C01164816D0164B042912D0082911D152
:101AC000114C241F216801F03F02216849020AD508
:101AD0002068C0F38810A0FB03010023FEF7E0FBA1
:101AE00009E0184610BD21680023C1F38811A1FB4D
:101AF0000001FEF7D5FB2168C1F30141491C4900F3
:101B0000B0FBF1F010BD0000083802400024F400E2
:101B100040787D012DE9F84F0446002C10D0207844
:101B2000DC4DC00757D0DB4808300168C1F38101A4
:101B300001290DD00068C0F38100022803D00EE017
:101B40000120BDE8F88FD348001D0068400206D58B
:101B5000286880033FD5606870BB0120F1E76068AA
:101B6000B0F5803F10D0B0F5A02F12D0286820F437
:101B700080302860286820F4802028606068E0B108
:101B8000FFF734FE064614E0286840F480302860F1
:101B9000F4E7286840F480202860286840F480300A
:101BA0002860EBE7FFF722FE801B642801D90320A1
:101BB000C7E728688003F5D50DE0FFF717FE064656
:101BC00006E0FFF713FE801B642801D90320B8E765
:101BD00028688003F5D42078AF4F80074FF00008C5
:101BE00049D5AC480830016811F00C0F09D00068E5
:101BF000C0F38100022814D1A648001D00684002ED
:101C00000FD42868800704D5E068012801D001209E
:101C100097E72868216920F0F80040EAC1002860B1
:101C200029E0E068B8B101203860FFF7DFFD064623
:101C300006E0FFF7DBFD801B022801D9032080E7C7
:101C400028688007F5D52868216920F0F80040EA67
:101C5000C10028600FE0C7F80080FFF7C7FD064607
:101C600006E0FFF7C3FD801B022801D9032068E7C7
:101C700028688007F5D42078000729D5DFF814926A
:101C80008648616909F1740989B101210160FFF792
:101C9000ADFD064606E0FFF7A9FD801B022801D92D
:101CA00003204EE7D9F800008007F4D510E0C0F813
:101CB0000080FFF79BFD064606E0FFF797FD801BBF
:101CC000022801D903203CE7D9F800008007F4D4AA
:101CD0002078400772D50026DFF8B8A10AF1400A43
:101CE000DAF80000C0000BD4DAF8000040F08050B1
:101CF000CAF80000DAF8000000F0805000900126D9
:101D0000DFF89CB1DBF80000C00515D4DBF800005B
:101D100040F48070CBF80000FFF768FD814607E0D3
:101D2000FFF764FDA0EB0900022801D9032008E7B2
:101D3000DBF80000C005F3D5DFF858B1A0680BF15F
:101D4000700B012813D0052818D0DBF8000020F014
:101D50000100CBF80000DBF8000020F00400CBF815
:101D60000000A06830B3FFF741FD81461DE0DBF8BD
:101D7000000040F00100CBF80000F2E7DBF80000C3
:101D800040F00400CBF80000DBF8000040F0010058
:101D9000CBF80000E5E7FFF729FDA0EB090141F2D0
:101DA0008830814201D90320CBE6DBF800008007B0
:101DB000F1D512E0FFF71AFD81460AE015E0FFF7C2
:101DC00015FDA0EB090141F28830814201D90320C1
:101DD000B7E6DBF800008007F1D4012E05D1DAF870
:101DE000000020F08050CAF80000A069C0B3294963
:101DF00008310968C1F38101022949D0022805D0C0
:101E0000C7F86080FFF7F2FC04463CE0C7F860804A
:101E1000FFF7ECFC064606E0FFF7E8FC801B022813
:101E200001D903208DE628688001F5D4D4E90701A3
:101E30000843616AA26A4FF0FF33890103EB520243
:101E400041EA0241084394F82C1040EA016111482C
:101E5000001D016001203866FFF7C8FC044607E05A
:101E600014E0FFF7C3FC001B022801D9032068E639
:101E700028688001F5D509E0FFF7B8FC001B0228AF
:101E800001D903205DE628688001F5D4002058E6DA
:101E9000012056E60038024000004742800E4742CB
:101EA0000070004070B504460D46002C03D094F835
:101EB0002C0010B107E0012070BD002084F82D0037
:101EC000204600F011F8022084F82C00211D206823
:101ED000FEF7F6FDD4E900022946FEF743FE012095
:101EE00084F82C00002070BD704710B5044694F8AB
:101EF0002C0002280AD0022084F82C002068FEF76B
:101F000008FE012084F82C00002010BD022010BD26
:101F100070B504460D4694F82C0002280ED002201D
:101F200084F82C0029462068FEF7F9FD286802286D
:101F300006D0012084F82C00002070BD022070BD66
:101F4000052084F82C00F7E710B5401EB0F1807F23
:101F500001D3012010BD4FF0E02460610F21601714
:101F600000F062FA0020A06107202061002010BD6F
:101F700070477047704770B50446206801694FF09C
:101F80000005C943890716D4C168C943890712D41B
:101F9000E91E01610120207620688069800703D056
:101FA0002046FFF7E7FF05E0204600F09BF82046BB
:101FB00000F099F8257620680169C943490718D4CB
:101FC000C168C943490714D46FF0040101610220BC
:101FD00020762068806910F4407F03D02046FFF708
:101FE000C9FF05E0204600F07DF8204600F07BF8B0
:101FF000257620680169C943090717D4C168C94318
:10200000090713D46FF008010161042020762068CD
:10201000C069800703D02046FFF7ACFF05E02046EB
:1020200000F060F8204600F05EF82576206801692F
:10203000C943C90618D4C168C943C90614D46FF08E
:1020400010010161082020762068C06910F4407FEB
:1020500003D02046FFF78EFF05E0204600F042F84F
:10206000204600F040F8257620680169C943C90779
:1020700008D1C168C943C90704D1891E016120463E
:1020800000F032F820680169C943090609D4C16823
:10209000C943090605D46FF0800101612046FFF7AE
:1020A00067FF20680169C943490609D4C168C9436B
:1020B000490605D46FF040010161204600F02EF87A
:1020C00020680169C94389060BD4C168C9438906E0
:1020D00007D46FF0200101612046BDE87040FFF792
:1020E00048BF70BD704770470949884204D109490B
:1020F0000A6882F480620A6005493C31884206D150
:102100000548D0E90012491C42F1000206C07047A0
:10211000D4020020141C024018000020704770B543
:102120000446002C04D094F83900002510B106E0D4
:10213000012070BD84F83850204600F022F8242099
:1021400084F839002068C16821F40051C16020463C
:1021500000F050FD2068016921F490410161206880
:10216000416921F02A0141612068C16841F40051B0
:10217000C160E563202084F8390084F83A0000202B
:1021800070BD70472DE9F84304460D4691461E4642
:1021900094F83900202802D00220BDE8F883B5B1B8
:1021A000B9F1000F13D094F83800012811D00120A4
:1021B00084F838000027E763212084F83900FFF70E
:1021C00015FB8046A4F82490A4F826902DE0012069
:1021D000E3E70220E1E7E08C401EE084A068B0F570
:1021E000805F09D04346002280212046009600F0FF
:1021F0008BFEB0B10320D0E7434600228021204669
:10220000009600F081FE08B10320C6E72888216807
:10221000C0F308004860206908B16D1C05E0AD1CE2
:1022200003E0216815F8010B4860E08C0028D2D14A
:102230004346002240212046009600F065FE08B18A
:102240000320AAE720203834607027700020A4E71C
:1022500000BEFDE72DE9F047884691461D46002463
:102260004246494622A0FEF7B5FC401C4FF4806769
:1022700022D0214E3760F01430604000306019E009
:1022800059F824001AA1FEF7A8F888B955F82400D7
:102290001AA1FEF7A2F830B155F8240019A1FEF7F3
:1022A0009CF820B104E04FF08060306000E03760BF
:1022B000641CE4B24445E3DB0F4C3946183C20462D
:1022C000FFF786FA68B139462046FFF781FA50B128
:1022D00039462046FFF77CFA012806D00BA0BDE85E
:1022E000F08713A0FBE71AA0F9E721A0F7E70000A9
:1022F0004C45443100000000181C02404C4544315C
:102300004F4E00004C4544314F4646002F53544D2C
:102310003332463430374C45445F4F46465F424582
:1023200045505F4F46462E7368746D6C0000000088
:102330002F53544D3332463430374C45445F4F4E63
:102340005F424545505F4F46462E7368746D6C0082
:102350002F53544D3332463430374C45445F4F4E43
:102360005F424545505F4F4E2E7368746D6C0000A0
:102370002F53544D3332463430374C45445F4F462B
:10238000465F424545505F4F4E2E7368746D6C003A
:10239000F0B587B01C48016841F080010160016818
:1023A00001F080010191016841F080010160016844
:1023B00001F080010191016841F080010160006835
:1023C00000F0800001904FF480640294012003909B
:1023D0000490032005900D4F02A93846FFF708F935
:1023E0006500029502A93846FFF702F9A600029699
:1023F00002A93846FFF7FCF804481830046005606D
:10240000066007B0F0BD000030380240001C0240FA
:1024100000BEFDE70248016841F00101016070471C
:102420001000002000BE70470907090E002806DAD8
:1024300000F00F0000F1E02080F8141D704700F15B
:10244000E02080F800147047704770477047000024
:102450002DE9F04F87B0FE48016841F0200101608E
:10246000016801F020010191016841F02001016043
:10247000016801F020010191016841F02001016033
:10248000016801F020010191016841F02001016023
:10249000016801F020010191016841F02001016013
:1024A000016801F020010191016841F02001016003
:1024B000016801F020010191016841F020010160F3
:1024C000016801F020010191016841F020010160E3
:1024D000016801F020010191016841F020010160D3
:1024E000016801F020010191016841F020010160C3
:1024F000016801F020010191016841F04001016093
:10250000016801F040010191016841F04001016062
:10251000016801F040010191016841F0080101608A
:10252000016801F008010191016841F008010160B2
:10253000016801F008010191016841F008010160A2
:10254000016801F008010191016841F00801016092
:10255000016801F008010191016841F0100101607A
:10256000016801F010010191016841F01001016062
:10257000016801F010010191016841F01001016052
:10258000016801F010010191016841F01001016042
:10259000016801F010010191016841F01001016032
:1025A000016801F010010191016841F01001016022
:1025B000016801F010010191016841F01001016012
:1025C000016801F010010191016841F01001016002
:1025D000016801F010010191016841F010010160F2
:1025E000016801F010010191016841F008010160EA
:1025F000016801F008010191016841F008010160E2
:10260000016801F008010191016841F008010160D1
:10261000016801F008010191016841F08001016049
:10262000016801F080010191016841F04001016001
:10263000016801F040010191016841F04001016031
:10264000016801F040010191016841F0040101605D
:10265000016801F004010191016841F0200101606D
:10266000016801F020010191016841F04001016021
:10267000016801F040010191016841F040010160F1
:10268000016801F040010191016841F080010160A1
:10269000016801F080010191016841F010010160C1
:1026A000016801F010010191016841F01001016021
:1026B000006800F0100001900220039001200490B7
:1026C000022005900C2006900120029002A961488A
:1026D000FEF78EFF0220029002A95E48FEF788FFF7
:1026E0000420029002A95B48FEF782FF08200290B6
:1026F00002A95848FEF77CFF1020029002A9554815
:10270000FEF776FF4FF02008CDF8088002A9514867
:10271000FEF76EFF4FF48059CDF8089002A94D489E
:10272000FEF766FF4FF4005ACDF808A002A9494809
:10273000FEF75EFF4FF48045029502A94548FEF77B
:1027400057FF6C00029402A94248FEF751FF012096
:10275000029002A94048FEF74BFF0220029002A916
:102760003D48FEF745FF029502A93C48FEF740FFB1
:10277000029402A93948FEF73BFF0120029002A90A
:102780003648FEF735FF0220029002A93348FEF7D3
:102790002FFF8020029002A93148FEF729FFE611A1
:1027A000029602A92E48FEF723FFA011029002A96B
:1027B0002B48FEF71DFF4FF4806BCDF808B002A93F
:1027C0002748FEF715FF2711029702A92448FEF7B4
:1027D0000FFFCDF8089002A92148FEF709FFCDF8B8
:1027E00008A002A91E48FEF703FF029502A91C4893
:1027F000FEF7FEFE029402A91948FEF7F9FE0296C2
:1028000002A91648FEF7F4FEA011029002A913488F
:10281000FEF7EEFECDF808B002A91048FEF7E8FE7C
:10282000402002900F4D02A92846FEF7E1FE10203D
:10283000029002A90848FEF7DBFECDF8088002A945
:102840000548FEF7D5FE0120029002A906480DE0DA
:10285000303802400014024000180240000C0240D0
:1028600000100240001C024000080240FEF7C0FEBB
:10287000029702A91048FEF7BBFE029402A90F4876
:10288000FEF7B6FE029602A90C48FEF7B1FE8020C4
:10289000029002A92846FEF7ABFE0220029002A990
:1028A0000748FEF7A5FE0120029002A90448FEF7A2
:1028B0009FFE07B0BDE8F08F0014024000180240F0
:1028C0000010024000B589B0FFF7C2FD0021174893
:1028D000026842F001020260006800F0010001900D
:1028E0001448134A02600122426081600422C260DF
:1028F00010230361402343614FF4C0738361C161BE
:10290000530203624162D1028162022002900721D8
:1029100003910492059106900790089002A905483A
:10292000FFF7C0FA00F008F809B000BD38380240DF
:10293000400100A0900200202DE9F047204C012525
:10294000256008266660A5600027E7604FF6FF79DE
:1029500021464A46A1F13400FFF7DAFA012000F0DF
:1029600031F8022020606660A560E76021464A4693
:10297000A1F13400FFF7CCFA0320206066604FF02D
:102980000408C4F80880E76021464A46A1F13400F3
:10299000FFF7BEFA40F23120C4F800806660A560FF
:1029A000E06021464A46A1F13400FFF7B1FAA4F1F4
:1029B0003400BDE8F04740F26A51FFF796BA0000D4
:1029C000C402002001B581B0054901984843009038
:1029D00002E00098401E009000980028F9D10CBD3C
:1029E000A086010010B5002806D0012808D00228D2
:1029F0000AD003280FD10BE00846FDF774FD0AE06A
:102A0000084600F0D9F806E00846FFF71DFD02E091
:102A10000846FFF71AFD0846FDF7D8FC80B210BD46
:102A200010B55020EFF3118480F31188BFF34F8F5E
:102A3000BFF36F8FFEF7E0FE0BF06CF9012801D0B9
:102A40000AF01AFE84F3118810BD10B592B001206F
:102A5000019000040290022407948001089019203C
:102A600009904FF4A8700A900B9407200C9001A8CD
:102A7000FFF750F800B1FEE7FEF714FF00B1FEE7E4
:102A80000F200D900E9400200F904FF4A050109046
:102A90004FF48050119005210DA8FEF73DFF00284E
:102AA00000D0FEE712B010BD1048016841F470017B
:102AB00001600F48016841F0010101600C4A0021EA
:102AC0000832116002680B4B1A400260031D0A4A6B
:102AD0001A60026822F48022026005480C3001600E
:102AE00002495806803908607047000088ED00E010
:102AF00000380240FFFFF6FE103000243EB50021F2
:102B0000084609F0FBFD1A481849016018496FF0A2
:102B10007F40091D0860091D1648086017490022FA
:102B2000134BCDE900211448083302901A1F111FDE
:102B3000134804F08BFA124804F0F4FB104C94F89C
:102B40002D00400703D5204604F001FC02E00C48AC
:102B500004F0EEFB6068010E0091C0F30743C0F380
:102B60000722C1B207A000F027FA3EBDC0A8017A33
:102B700034010020C0A80101FDC7000891400008F1
:102B800098F00120B1BEB5D84950B5D8D6B7CAC75C
:102B90003A25642E25642E25642E25640A0A000039
:102BA0000148FFF7E8B90000D40200200148FFF710
:102BB000E2B900001003002070470000054C4FF4FC
:102BC0007A75216881F48061216028460AF0FCFA58
:102BD000F7E70000141C0240054C4FF4FA65216829
:102BE00081F40061216028460AF0EEFAF7E7000060
:102BF000141C02402DE9F04104462068016921F4CB
:102C00004052E168114301612068C26849F20C61D9
:102C10008A432369A168E569194363692B43194312
:102C20001143C1602068416921F44071A2690A43DF
:102C30004261E069B24AB34964253226B0F5004FDB
:102C400059D02068884201D090427DD1FEF71CFF08
:102C500000EBC00101EB001061688900B0FBF1F7E7
:102C6000FEF712FF00EBC00101EB00106168890064
:102C7000B0FBF1F0B0FBF5F06FF01801484307EB43
:102C8000800006EB0010B0FBF5F000F0F007FEF757
:102C9000FBFE00EBC00101EB001061688900B0FB96
:102CA000F1F0B0FBF5F007EB0017FEF7EDFE00EBDF
:102CB000C00101EB001061688900B0FBF1F8FEF77C
:102CC000E3FE00EBC00101EB001061688900B0FB7E
:102CD000F1F0B0FBF5F06FF01801484308EB80000D
:102CE00006EB0010B0FBF5F0216800F00F0038444F
:102CF0008860BDE8F0812068884201D0904256D1BA
:102D0000FEF7C2FE00EBC00101EB00106168490054
:102D1000B0FBF1F0B0FBF5F00701FEF7B5FE00EBFC
:102D2000C00101EB001061684900B0FBF1F8FEF74B
:102D3000ABFE00EBC00101EB001061684900B0FB85
:102D4000F1F0B0FBF5F000E086E06FF018014843C9
:102D500008EB800006EBC000B0FBF5F000F0F800D7
:102D600007EB4007FEF790FE00EBC00101EB0010FF
:102D700061684900B0FBF1F8FEF786FE00EBC00188
:102D800001EB001061684900B0FBF1F0B0FBF5F019
:102D90006FF01801484308EB800006EBC000B0FB61
:102DA000F5F0216800F0070038448860A1E7FEF7DD
:102DB0005BFE00EBC00101EB001061684900B0FB55
:102DC000F1F0B0FBF5F00701FEF74EFE00EBC0019D
:102DD00001EB001061684900B0FBF1F8FEF744FE1A
:102DE00000EBC00101EB001061684900B0FBF1F09D
:102DF000B0FBF5F06FF01801484308EB800006EBDC
:102E0000C000B0FBF5F000F0F80007EB4007FEF75C
:102E10002BFE00EBC00101EB001061684900B0FB24
:102E2000F1F8FEF721FE00EBC00101EB0010616834
:102E30004900B0FBF1F0B0FBF5F06FF0180148432A
:102E400008EB800006EBC000B0FBF5F0216800F055
:102E50000700384488604CE7FEF706FE00EBC0012F
:102E600001EB001061688900B0FBF1F7FEF7FCFD93
:102E700000EBC00101EB001061688900B0FBF1F0CC
:102E8000B0FBF5F06FF01801484307EB800006EB4C
:102E90000010B0FBF5F000F0F007FEF7E5FD00EBE9
:102EA000C00101EB001061688900B0FBF1F0B0FBDC
:102EB000F5F007EB0017FEF7D7FD00EBC00101EBC3
:102EC000001061688900B0FBF1F8FEF7CDFD00EB62
:102ED000C00101EB001061688900B0FBF1F0B0FBAC
:102EE000F5F06FF01801484308EB800006EB001086
:102EF000B0FBF5F0216800F00F0038448860F8E678
:102F000000140140001001402DE9F04104460E4636
:102F100017469846069D1DE0681C1BD02DB1FEF794
:102F200065FCA0EB0800A84214D92068C16821F410
:102F3000D071C1602068416921F001014161202008
:102F400084F8390084F83A00002084F8380003201F
:102F5000BDE8F0812068006836EA000004D0002057
:102F6000B842D9D00020F3E70120F9E71CB50D489D
:102F700000680168C943890612D4446800200A49E0
:102F8000CDE9001003464FF4FA62084804F01EF839
:102F900007490868C2080830086002484030845475
:102FA0001CBD0000D001002015240008D8640020BA
:102FB0001000002000BEFDE70FB4054B10B503A9BB
:102FC000044A029800F018F810BC5DF814FB0000E9
:102FD000C5410008CC01002002E008C8121F08C14A
:102FE000002AFAD170477047002001E001C1121F8A
:102FF000002AFBD1704700002DE9FF4F8DB09B46A2
:103000000F460446002606E025280BD05A460F99A5
:103010009047641C761C20780028F5D111B030460A
:10302000BDE8F08F0025A8460122984900E005433D
:1030300014F8013F203B02FA03F00842F7D1207850
:103040002E2817D114F8010F45F004052A280ED0B8
:103050006FF02F022078A0F1300109290AD808EB7F
:10306000880102EB410100EB0108641CF2E757F80C
:10307000048B641C20786C280DD004DC4C2812D002
:103080006A2811D104E074280DD07A280CD10AE006
:1030900045F4001507E0617845F48015814202D1BE
:1030A000641C05F58015641C2078692844D008DC70
:1030B0000028B3D0582867D063280FD0642808D1DF
:1030C0003AE0702865D0732812D075285AD0782835
:1030D0005AD05A460F999047761CD5E017F8040B42
:1030E0008DF8000000208DF80100E946012003E082
:1030F00057F8049B4FF0FF3069074FF0000501D4EB
:103100000AE06D1C45450DDA8542FADB19F8051019
:103110000029F6D106E06D1C8542FCDB19F805108C
:103120000029F8D12E4404E019F8010B5A460F99F2
:1031300090476D1EF8D2A7E00A200021CDE90801D2
:10314000C5F3025002280CD001CFC117021E71F145
:1031500000020CDA0023D0EB030063EB01012D2207
:1031600008E0FF1D27F00707F7E80201EEE72A0550
:1031700004D52B228DF8282001223CE0EA073AD022
:103180002022F7E70A2000E010200021CDE9080105
:1031900007E01020002145F00405CDE908014FF0BB
:1031A0000808C5F30250022810D001CF00214FF0CB
:1031B000000A2A0720D52278702A0DD0DDE908C33D
:1031C0008CF0100C5CEA030C0CD015E0FF1D27F00E
:1031D0000707F7E80201EAE740228DF828204FF0C0
:1031E000010A0CE050EA010306D030238DF82830A4
:1031F0008DF82920022292462278582A04D024A24F
:103200000DF120090B9209E026A2F9E7DDE9082378
:10321000FDF746F80B9B9B5C09F8013D50EA010263
:10322000F4D1ADEB090020300890680701D44FF0CD
:1032300001080899884503DD0898A8EB000000E024
:1032400000208046002506E00AA85A46405D0F99F6
:1032500090476D1C761C5545F6DB04E030205A463D
:103260000F999047761CB8F10001A8F10108F5DC30
:1032700005E019F8010B5A460F999047761C0899FA
:10328000481E08900029F4DC641CC4E609280100EB
:1032900030313233343536373839616263646566CC
:1032A000000000003031323334353637383941428E
:1032B000434445460000000001460020002909D093
:1032C000C97A491C022905D2034A52F82110002963
:1032D00000D0012070470000480000202DE9F05F79
:1032E00007468B460025DFF8808007EB0710A8F51E
:1032F000886AA9460AEB001405EB450658F8263003
:103300005BB108EB8600017AB94206D1426804F14C
:1033100010005946984748F826906D1CEDB2042DD0
:10332000EAD300210425B9420CD001EB01100AEBCD
:103330000010827A022A05D1C07BE27B904201D143
:10334000E57303E0491CC9B20429ECD3E07B0428EF
:1033500008D2064E56F8200009F0D2FCE07B46F871
:103360002090E573BDE8F09F40690020F0640020E4
:1033700010B50024204600F005F8641CE4B2042CCB
:10338000F8D310BD2DE9F0410546284905EB05109D
:1033900001EB0014042D02D325A0FFF70DFEA07A47
:1033A00000283AD000260127012808D0022813D08F
:1033B000032834D0BDE8F04124A0FFF7FDBD00F0A4
:1033C00055F820810220A072E672277366732846A2
:1033D000BDE8F04100F072B8207B401E10F0FF0005
:1033E00020731AD1607B401CC0B26073042805D0E2
:1033F00020732846BDE8F04100F060B82046FFF792
:103400005BFF28B1E07A401CE07227736673F0E737
:1034100000212846FFF762FFA672BDE8F081206810
:1034200010B1401E2060F8D1A672F6E700650020BA
:10343000617272617920696E646578206F7574209D
:103440006F6620626F756E6473000000756E6B6E40
:103450006F776E20646E735F7461626C6520656E59
:103460007472792073746174653A000010B50A4C67
:10347000FCF74CFF80B2002101EB011204EB0212B9
:10348000937A022B02D112898242F1D0491CC9B22F
:103490000429F1D310BD00000065002008B504A088
:1034A00003F048F800906946002000F0ADF808BD30
:1034B0003232332E352E352E350000002DE9FF5FD8
:1034C0000446494904EB041001EB0015E87A022890
:1034D00002D346A0FFF770FDEA7A4A49002651F868
:1034E000220048B305F110000446FCF76FFF1230CC
:1034F00081B24FF42072362003F072FF82465FEAF9
:103500000A006CD0019602960396288903F0C0F950
:10351000ADF8040001208DF806004FF4807BADF873
:1035200008B00C2201A9504604F010FB641E0C26C2
:10353000641C274600220BE000212046FFF7CEFE48
:10354000AE72002004B0BDE8F09F521CD2B2641CE1
:1035500020782E2801D00028F7D1E01B1FFA80F92F
:1035600006EB020808F10108B8F5803F05D3504684
:1035700004F096F96FF00500E4E73146504604F098
:1035800021FA761CB3B24A463946504604F02AFB6B
:103590001FFA88F620780028CAD10022314650460A
:1035A00004F010FA761CB3B2ADF800B0ADF802B07A
:1035B00004226946504604F015FBE87B3523EA7A7D
:1035C000104901EB82020849103951F82000514698
:1035D00009F0B0FB0446504604F062F901E04FF0F8
:1035E000FF342046AEE7000000650020646E7320C3
:1035F000736572766572206F7574206F66206172D4
:103600007261790048000020022805D2054A02EBC9
:10361000800011B1096801607047034909680160C1
:103620007047000048000020FCE10008FFF7A0BE42
:1036300070B505460C46A00702D007A0FFF7BCFCFA
:1036400004F0FDFEA96809682160A9680C60BDE866
:10365000704004F019BF00006D656D705F667265A3
:10366000653A206D656D2070726F7065726C79209F
:10367000616C69676E65640070B5044604F0DFFE36
:103680000546A06804685CB121680160A00702D00B
:1036900006A0FFF791FC284604F0F6FE204670BD18
:1036A000284604F0F1FE002070BD00006D656D70CD
:1036B0005F6D616C6C6F633A206D656D7020707228
:1036C0006F7065726C7920616C69676E656400006B
:1036D00070B505460024084E04EB440006EBC0001C
:1036E000017D29B18068A84202D1204600F0F6F899
:1036F000641C0A2CF0DB70BD88EF01202DE9F74F28
:1037000084B080464FF00A0AD1460A270024BB46FF
:103710000020029001900090494904EB440001EB25
:10372000C0060390357D0A2F00D1CDB125B3012D00
:1037300004D0022D02D243A0FFF73EFCB8F1000FE7
:1037400010D0D8F80000716888420BD1069818B1E3
:10375000B1680698814205D1204607B0BDE8F08FD8
:10376000274609E0012D13D0022D05D3708A009958
:10377000884201D3A1460090641C24B20A2CCBDB02
:1037800005984FF0FF3180071CD40A2F13D015E0A5
:103790002B48039950F8310030B1708A0299884261
:1037A000EAD3A3460290E7E7708A01998842E3D3FF
:1037B000A2460190E0E70598C00703D00A2F03DA7C
:1037C0003C4620E00846C8E7B9F10A0F0ADA4C4641
:1037D0001B4804EB440150F8310060B129A0FFF709
:1037E000EBFB08E0BAF10A0F01DA544603E0BBF143
:1037F0000A0F23DA5C460A2C02DB28A0FFF7DCFB69
:10380000204600F06BF80A2C02DB24A0FFF7D4FB63
:103810000B4804EB440100EBC105287D10B124A046
:10382000FFF7CAFBB8F1000F02D0D8F800006860BB
:10383000002068820698A86020468EE708468CE73C
:1038400088EF01207374617465203D3D2045544824
:103850004152505F53544154455F50454E44494E88
:1038600047207C7C207374617465203E3D20455464
:10387000484152505F53544154455F535441424C68
:10388000450000006172705F7461626C655B695D28
:103890002E71203D3D204E554C4C000069203C20AF
:1038A0004152505F5441424C455F53495A450000D4
:1038B0006172705F7461626C655B695D2E737461C7
:1038C0007465203D3D204554484152505F5354415A
:1038D00054455F454D5054590000000070B5084DE7
:1038E00000EB4004002655F83400002803D003F014
:1038F000D7FF45F8346005EBC400067570BD0000C5
:1039000088EF01202DE9F04387B007460D46002DD2
:1039100011D07C684FF480782088404508D1207908
:10392000062805D16079042802D16088082805D0CE
:10393000384603F0B5FF07B0BDE8F083D4F80E00B9
:103940000690A0690590696819B1884203D10126E3
:1039500002E0002600E000260EB1012300E0022371
:1039600004F10802914606A9284600F09DFAE08875
:1039700040450ED16EB106AACDE901920221281D63
:1039800005F126030391009019464A46284600F0A7
:10399000C7F9384603F084FFCDE70000FEB50446C2
:1039A0000E461546002C02D13FA0FFF705FB16B9C5
:1039B00041A0FFF701FB280002D142A0FFF7FCFA6B
:1039C0002146286801F0A7FE08B1424B3FE0286875
:1039D000C0F303110E2925D0A168636800EA010233
:1039E0000B409A4208D080B2A0F57E41A93903D09D
:1039F000E068B0B304F10C05374B38491A7802EB94
:103A0000420001EBC000077D022F2ED38768A7423A
:103A10002BD12F684068874227D13146204600F0DD
:103A20005FF8FEBD01208DF8040000208DF8050030
:103A30005E208DF80600687800F07F008DF80700A2
:103A4000A8788DF80800E8788DF8090001AB4FF4EC
:103A50000060009004F126023146204600F0D2FAC0
:103A6000FEBDFFE76FF00300FAE7002202EB420021
:103A700001EBC000077D022F0CD38768A74209D154
:103A80002F684068874205D11A703146204600F001
:103A900027F8E5E7521CD2B20A2AE7D33246294674
:103AA000204600F075F8DBE76E6574696620213DFD
:103AB000204E554C4C0000007120213D204E554CAD
:103AC0004C00000069706164647220213D204E55F5
:103AD0004C4C000004E200080001002088EF0120A7
:103AE0002DE9F84306460F4615461C4805EB4501EF
:103AF00000EBC104207D022802D219A0FFF75CFA76
:103B0000164A05EB4501207D02EBC1050C35022864
:103B100018D1618A4FF00308B1F58E7F07D9211DB6
:103B2000304600F07BF968B984F814800AE0B1F5FA
:103B3000877F07D32A46211D304600F075F908B962
:103B400084F814804FF4006000902B4606F12602A2
:103B50003946304600F056FABDE8F88388EF012078
:103B60006172705F7461626C655B6172705F6964E1
:103B7000785D2E7374617465203E3D204554484144
:103B800052505F53544154455F535441424C450099
:103B90002DE9FC5F8246884617460AF1260001900F
:103BA0004FF0FF3600245146D8F8000001F0B3FD75
:103BB000A0B9D8F80000C0F303110E290ED0B8F157
:103BC000000F0BD050B1524601214046FFF796FD41
:103BD0000546002D05DA68B2BDE8FC9F6FF00F00C6
:103BE000FAE77F2D02D337A0FFF7E6F905F0FF0BC8
:103BF00038480BEB4B0900EBC905297D21B901249D
:103C000001212975C5F808A0287D012804D00228C3
:103C100002D231A0FFF7D0F904B96FB9414650463E
:103C200000F0FCF80646300005D1287D012802D1BD
:103C30000CB9002068829FB1287DDFF898800228A7
:103C400010D32F4880F800B04FF40060009005F1C9
:103C50000C0339465046019A00F0D4F906462FE08D
:103C60003046B9E701282BD100253C460EE060899B
:103C70002189884204D1206810B122A0FFF79CF965
:103C8000207B400601D5012502E02468002CEED1FE
:103C90003DB13A464FF420710E2003F01FFD074658
:103CA00002E0384603F0FEFE47B158F8390008B18B
:103CB00003F0F6FD48F83970002601E04FF0FF36BA
:103CC000304689E774797065206F766572666C6F2F
:103CD0007700000088EF01206172705F7461626C90
:103CE000655B695D2E7374617465203D3D205045B0
:103CF0004E44494E47206F7220535441424C450078
:103D0000000100206E6F207061636B657420717517
:103D10006575657320616C6C6F77656421000000C8
:103D20002DE9FF4F81B00646DDE90FABDDF8389095
:103D30001F464FF00008002E02D126A0FFF73CF9E5
:103D40004FF420721C210E2003F04AFB0546280088
:103D50003CD068891C2802D222A0FFF72DF96C689C
:103D6000119802F095FDE08096F82C00062802D00C
:103D70002948FFF721F93868A060B888A081DAF8EF
:103D80000000C4F81200BAF80400E082D9F800007C
:103D9000C4F80E00DBF80000A0614FF480702080B2
:103DA00008206080062020710420607140F6060023
:103DB000DDE9022300902946304600F023F9284629
:103DC00003F06EFD404605B0BDE8F08F4FF0FF30C8
:103DD000F9E700006E6574696620213D204E554C60
:103DE0004C000000636865636B2074686174206632
:103DF0006972737420706275662063616E20686FEB
:103E00006C64207374727563742065746861727079
:103E10005F6864720000000064180808014A00F03E
:103E200003B8000004E200087FB5064D031D01241D
:103E3000CDE90035CDE9021422331946FFF770FFB2
:103E400004B070BD0AE2000870B50024154D04EB03
:103E5000440005EBC002117DF9B1508A401C80B2CC
:103E60005082B0F5967F03D2012905D1052803D3EE
:103E70002046FFF733FD10E0032904D0042905D0C4
:103E8000012906D009E00420107506E00220107513
:103E900003E0111D9068FFF7C1FF641C0A2CD6DBFC
:103EA00070BD000088EF0120F8B504460D461646A7
:103EB0001F4694F82C00062802D01EA0FFF77CF8BD
:103EC0009DB1286888B1214601F025FC68B92878A1
:103ED000C0F303100E2808D0224639462846FFF7C3
:103EE0000DFC002804DA40B2F8BD6FF00F00F8BDF9
:103EF000194A00EB400102EBC10002230375846004
:103F00003368C360B38803820023438252F8315080
:103F100075B142F831304FF400600090334604F13F
:103F200026022946204600F06DF8284603F0B8FC2A
:103F30000020F8BD6E657469662D3E687761646423
:103F4000725F6C656E203D3D204554485F48574187
:103F50004444525F4C454E0088EF01202DE9F0416A
:103F600004460D460E2760890E283DD9E07B18B91E
:103F700095F83000401CE073606886890178CA07B4
:103F800015D0012905D006221D49FCF734FA50B19D
:103F90000DE0417859B980785E2808D1607B40F007
:103FA0001000607303E0607B40F008006073082E2F
:103FB00003D0B6F5C16F17D10DE095F82D000007BD
:103FC00012D53946204603F08BFD68B929462046B4
:103FD00001F0ACFC12E095F82D00000704D539463D
:103FE000204603F07DFD28B1204603F059FC002057
:103FF000BDE8F08129462046FFF784FC0020F7E762
:1040000004E200082DE9F04106460F4615461C461D
:10401000069802F03DFC80460E21384603F0A5F9D3
:1040200018B16FF00100BDE8F0817868A0F80C804D
:1040300021680160A18881802968C0F80610A988DC
:10404000418196F82C00062802D004A0FEF7B4FFA8
:1040500039463046B269BDE8F04110476E65746973
:10406000662D3E6877616464725F6C656E206D7565
:104070007374206265203620666F722065746865EF
:10408000726E65745F6F7574707574210000000046
:1040900070B50446042002F09FFD05460DB134B111
:1040A00008E00DA0FEF788FF4FF0FF3070BD12A0B2
:1040B000FEF782FFE561522084F82E00592084F833
:1040C0002F00114860611148A061204602F052FAA9
:1040D00026342C60002070BD65746865726E65744E
:1040E00069665F696E69743A206F7574206F662027
:1040F0006D656D6F72790A006E6574696620213D89
:10410000204E554C4C0000009D39000859670008AE
:104110000646114D4FF0FF3700233A4619462868EE
:1041200009F038FB0128F7D108F042FF304602F0D1
:10413000B1FA044608F076FF002CEDD008F038FF05
:10414000336931462046984710B1204603F0A8FB5A
:1041500008F068FFE0E700001C0100202DE9F047AF
:104160008046002905D0087818B10C4600250027A4
:1041700021E00020BDE8F08708EB85063463A14606
:1041800026212046FCF718F918B100F8017B0446F7
:1041900006E020214846FCF70FF900B10770002423
:1041A0003D214846FCF708F918B100F8017B30675B
:1041B00000E037676D1C102D01DA002CDCD1284699
:1041C000D8E7000013B54FF47A730122694602481C
:1041D000FDF7D8FF00981CBDD0010020D0E90110E8
:1041E000081A70477047000070B505460E46002D4E
:1041F00002D00EB10D4C08E06FF00F0070BD3046DC
:104200006168FCF7EAF820B12468002CF7D1A01F00
:1042100070BDA0682860E0686860E068A860002061
:10422000E860207C2874002070BD00009C160808FF
:104230002DE9F0410446002C02D132A0FEF7BCFE6D
:10424000E46A14B932A0FEF7B7FE344E306890B17C
:10425000B06880B1706870B1002504F1120707E002
:10426000B06850F825103846FCF7B7F888B16D1CD7
:1042700070688542F4DB04F112000746FCF7A6F8EB
:10428000A72804D23846FCF7A1F809280AD9092042
:1042900012E03368C02204F11B0128469847E081F0
:1042A000BDE8F0813846FCF791F8A72803D23846DC
:1042B000FCF78CF800E0A720054604F11B00122251
:1042C00017A10646FCF734F82A46394604F12D00BA
:1042D000FCF72EF817A160190A6840F82D2F89887D
:1042E00081803E2181710021C1713046FCF76EF85A
:1042F0000546B5F5803F02D310A0FEF75DFEE581CF
:10430000CEE70000687320213D204E554C4C000044
:1043100073736920213D204E554C4C004001002014
:104320003C623E2A2A2A554E4B4E4F574E2054414E
:10433000472000002A2A2A3C2F623E006C656E202E
:104340003C3D2030786666666600000010B50C467D
:10435000002A1FD1F4B10121204607F0C7F900F06F
:1043600092FD0146C9B1CC61204604F041FB0C49E5
:10437000204606F0EBFE0B49204604F015FE042211
:104380000949204606F046F90849204607F08CF90D
:10439000002010BD6FF0050010BD4FF0FF3010BDC4
:1043A000ED48000891440008A5480008794D000830
:1043B00070B505460C466069002809D0FFF70EFF6E
:1043C00000280BDC2146284600F060F8002070BD74
:1043D0002146284600F05AF8002070BD02A0FEF7E2
:1043E000EBFD012070BD000053534920616E642035
:1043F00044594E414D49435F48454144455253203D
:104400007475726E6564206F6666206275742065CF
:104410006F66206E6F74207265616368656400006A
:10442000002200F001B8000070B506460D461446A3
:104430000021304604F0DCFA0021304606F086FE0A
:104440000021304604F0B0FD00221146304606F04F
:10445000E1F80021304607F027F915B1284600F0B1
:1044600032FD24B1304604F047FA002070BD3046DA
:1044700004F00CFB044624B104220349304606F044
:10448000C9F8204670BD0000A5480008FFF7C8BF66
:10449000002801D000F017BD704700002DE9F74F4C
:1044A00082B081460027B846BA460398FBF78EFFD4
:1044B000A8B303990A1812F8012C2F2A3BD1514AAC
:1044C000914201D1012836D1421E3F2A01D93F2510
:1044D00000E0451E35B12A464A48FBF729FF494806
:1044E000002141550024DDB1C5F13F06AEB1DFF832
:1044F00018B15BF83400FBF769FF864200D306462B
:104500005BF83410DFF8FCB032460BEB0500FBF72C
:104510000FFF0020A9190BF801003A4E03E00AE052
:10452000394850F8346048463146FFF75DFE20B107
:10453000641C052CD7D347B153E003964F4632484D
:1045400000EBC40090F804A0F5E73F210398FBF7C7
:1045500033FF80465FEA080004D0002088F800009E
:1045600008F10108294D4FF0FF306861286970B1EA
:10457000E86860B1002407E0E86850F83410039858
:10458000FBF72BFFA0B1641C28698442F4DB48468A
:104590000399FFF729FEE8B103A9484600F038F86F
:1045A0000746F7B1387C000716D54FF0010A18E02E
:1045B00041464846FFF7D2FD6861E96809F170039A
:1045C00001EBC40109F130024D6801462046A847BD
:1045D0000390DCE74F46E4E73846039900F084FC9B
:1045E000824627B903A9484600F012F80746CDE9EC
:1045F00000A8DDE903323946484600F035F805B039
:10460000BDE8F08FD0F40120C41608084001002056
:1046100070B505460C460BA121602846FFF7E4FD66
:1046200070B10BA121602846FFF7DEFD40B10BA160
:1046300021602846FFF7D8FD10B10020206070BD32
:10464000284670BD2F3430342E68746D6C00000025
:104650002F3430342E68746D000000002F34303455
:104660002E7368746D6C00002DE9F0410446DDF88E
:1046700018800D4617460026002D3CD0286810B93A
:1046800021A0FEF799FCB8F1000F0CD000F0EAFB76
:1046900048B1868180F8DC602968016069688160C2
:1046A00029684160E06265612868A0616868002847
:1046B00002DA1AA0FEF780FC6868606284F828605D
:1046C0006069007CC00702D11CA0FEF775FCBFB179
:1046D0006069007CC00713D023A1626AA06902F060
:1046E00035F968B1A169401A001D0144A161616AF0
:1046F000081A606204E06661A661666284F8286058
:104700000020BDE8F081000066696C652D3E6461A3
:10471000746120213D204E554C4C000046696C656B
:10472000206C656E677468206D75737420626520F7
:10473000706F7369746976652100000048545450A5
:104740002068656164657273206E6F7420696E63A2
:104750006C7564656420696E2066696C6520737988
:104760007374656D000000000D0A0D0A0000000062
:104770002DE9F05F05460C46002D02D13CA0FEF766
:104780001BFC14B93DA0FEF717FC606908B9A069CD
:1047900018B16FF00700BDE8F09F206AA8B1294664
:1047A00002F046FF284603F07DF9206A016871B1E6
:1047B000068940F2FF318E4200D30E460023324676
:1047C000314902F0B4FF304F03E02562EAE76F6839
:1047D0006E896FF00F0B072E3BD332462BA1384664
:1047E00002F0B4F8A8B34FF00008042228A138461C
:1047F000FBF70EFEC24618B187F804A05846CAE778
:10480000FD1C301F1FFA80F94A4623A1681C02F0E4
:104810009DF830B94A461DA1681C02F097F84FF088
:104820000108411B491E1FFA81F990B1A84210D915
:1048300032461AA1384602F089F850B1691C85F851
:1048400000A001F809A042462046BDE8F05FFFF74E
:1048500025BE206A02F038FF216A0989B1F5806F10
:1048600004D2052802D86FF0040094E7584692E776
:104870007020213D204E554C4C00000068732021D3
:104880003D204E554C4C0000D0F001200D0A000098
:104890004745542000000000200000000D0A0D0ACA
:1048A0000000000010B50C460146002912D091F816
:1048B0002800401CC0B281F82800042810D04869A4
:1048C00030B1204600F076F810B1204605F034FAF9
:1048D000002010BD00212046FFF7A2FD002010BDE2
:1048E0002046FFF79DFD002010BD00002DE9F0419E
:1048F00005460F461646002B0DD166B15DB13189D4
:10490000384606F05DFC686998B1304602F0C8FF91
:104910000020BDE8F08136B13189384606F050FC00
:10492000304602F0BDFF29463846FFF779FD0020EA
:10493000EFE73A4629463046FFF71AFF044654B1DE
:10494000601D08D014F1100F05D014F1080F02D02B
:104950000DA0FEF731FB601D05D0286A18B102F0EA
:104960009FFF00202862304602F09AFF34B11034D5
:10497000CED129463846FFF753FDC9E729463846C8
:1049800000F018F8C4E70000687474705F7061721A
:1049900073655F726571756573743A20756E6578BD
:1049A0007065637465642072657475726E207661DB
:1049B0006C75650070B506460C46002C02D0606A26
:1049C00010B106E0002070BD21463046FFF7F0FC34
:1049D00038B1E06A38B12146304600F035F8054676
:1049E00006E0002070BD2146304600F010F8054674
:1049F000606A50B96069FFF7F1FB002805DC2146C9
:104A00003046FFF743FD002070BD284670BDF8B565
:104A100006460C460025616A4FF6FF70814200D3BE
:104A20000146009100236A463046A16900F092FADF
:104A300040B90125BDF80010A0690844A061606A72
:104A4000401A60622846F8BD2DE9F34F81B00D464B
:104A500000260027EC6A002C02D1BDA0FEF7ACFABC
:104A60000198B0F8640000902068A9694FF6FF7AB9
:104A7000884219D9401A504500DB50460090002367
:104A80006A46019800F066FA0646300008D1012710
:104A9000BDF80000A9690144A961696A081A686241
:104AA0000198B0F8640030B14FF0010BDFF8AC9220
:104AB0004FF0000823E13846BDE8FE8FBDF8001036
:104AC00031B10528F6D2DFE800F0051D388CE00092
:104AD0003846F1E700202268117859F830301B7809
:104AE000994205D1207484F8DCB0A4F80CB003E03E
:104AF000401CC0B20228F0D3A068401EA060521C27
:104B00002260FCE0207C59F83010A0890A5C32B1A8
:104B100021680B789A4208D1401CA08107E0A4F8D4
:104B20000C80022084F8DC00E9E084F8DC80A068D6
:104B3000401EA060491C2160E1E0A08948B92268BC
:104B4000117820291DD009291BD00A2919D00D2937
:104B500017D0227C216809EBC202526809781278CA
:104B6000914214D0202912D0092910D00A290ED040
:104B70000D290CD008282BD2421C2044A28181741C
:104B800028E0A068401EA060521C2260B7E0C8B1B7
:104B9000032184F8DC10FF2802D971A0FEF70CFA7B
:104BA000A089607404F1120100F80180217C206862
:104BB00009EBC101496800780978884205D1A4F859
:104BC0000CB007E084F8DC8004E0A4F80C8001E07D
:104BD00084F8DC80A068401EA0602068401C206033
:104BE0008DE0A18949B92268107820281BD00928B6
:104BF00019D00A2817D00D2815D0207C09EBC00247
:104C00005068435C206890F800C0634535D1A368C4
:104C10005B1EA360401C2060491C88B2A0815168C3
:104C2000085C48BB05E0A068401EA060521C2260E2
:104C300065E02846FFF7FCFAA4F80C80042084F80D
:104C4000DC0020686060A969884258D9401A504544
:104C500000DB5046009000236A46019800F07AF984
:104C6000064630004BD10127BDF80000A969014478
:104C7000A961696A081A686241E0A168491EA160D9
:104C8000401C206084F8DC8039E06068A9698842B3
:104C900019D9401A504500DB504680B2009030B11F
:104CA00000236A46019800F055F9064600E0002608
:104CB00006BB0127BDF80000A9690144A961696A22
:104CC000081A68621BE0A089E189884213D2091A98
:104CD000009104F11B01014401236A46019800F090
:104CE00039F9064630000AD10127A089BDF8001025
:104CF0000844A08103E0A4F80C8084F8DC8094F8D8
:104D0000DC00042801D0A16811B1002E3FF4D6AE1A
:104D100094F8DC00042818D02068A969884214D9C6
:104D2000401A504500DA8246CDF800A000236A46BA
:104D3000019800F00FF940B90127BDF80000A969FA
:104D40000144A961696A081A68623846B4E600003D
:104D500073736920213D204E554C4C00EC16080819
:104D60007373692D3E7461675F696E646578203C7A
:104D70003D2030786666000010B50A4601460029DD
:104D800007D0002081F828001046FFF713FE00200E
:104D900010BD002010BD000070B505460C46002D6A
:104DA00002D106A0FEF708F9002C02DC07A0FEF7EE
:104DB00003F90D48C560046170BD00006E6F20638B
:104DC00067697320676976656E000000696E7661B9
:104DD0006C6964206E756D626572206F6620686113
:104DE0006E646C6572730000400100202DE9F04193
:104DF00006460C461546002E02D109A0FEF7DCF847
:104E00000D4F3E6014B90DA0FEF7D6F8002D02DC60
:104E10000EA0FEF7D1F8BC607D60BDE8F081000017
:104E20006E6F207373695F68616E646C6572206772
:104E30006976656E00000000400100206E6F2074EE
:104E400061677320676976656E000000696E766140
:104E50006C6964206E756D626572206F6620746186
:104E60006773000010B5E02001F0B6FE04461CB1E7
:104E7000E0212046FBF783FA204610BD002801D030
:104E800001F0A8BD704710B5B02001F0A5FE0446A2
:104E900014B1204600F024F8204610BD70B5044639
:104EA00000256069002802D0FFF79CF96561E06A7F
:104EB00010B1FFF7E3FFE562206A002802D002F09C
:104EC000EFFC256270BD10B50446002C07D02046CB
:104ED000FFF7E4FF2046BDE8104001F07BBD10BDA8
:104EE000B021FBF74CBA00002DE9F0410F46002637
:104EF000002823D014A13846FBF74CFA05462800B9
:104F000001D000202870384610A1FBF743FA04E0D6
:104F10000746401C0DA1FBF73DFA0028F8D10024FC
:104F2000DFF82C80384658F8241001F0F6FC40B128
:104F3000641C052CF6D30DB13F2028703046BDE827
:104F4000F0810126F7E700003F0000002E0000007E
:104F5000B01608082DE9F04105460F46164698465A
:104F6000002E02D118A0FEF727F83488ACB1B5F8AE
:104F70006400A04200D20446688E4FF6FF7101EA39
:104F80004000844200D9044643462246394628461A
:104F900006F0E6FF411C03D00CE00020BDE8F081E4
:104FA000B5F8641019B1B5F866104E2901D3012483
:104FB00000E06408411C01D1012CE5D810B10021AA
:104FC0003180EBE73480E9E76C656E677468202117
:104FD0003D204E554C4C000002210148FFF7DCBE3D
:104FE000FC16080810B52E2004F05AFE044614B929
:104FF00004A0FDF7E1FF2046BDE81040502100F07D
:105000000FB8000068747470645F696E69743A2048
:105010007463705F6E6577206661696C656400001B
:1050200070B504460D46002C1BD00121204606F029
:105030005DFB2A460B49204603F0DEFC10B10AA0B6
:10504000FDF7BAFFFF21204604F07CFD044614B9A9
:105050000CA0FDF7B1FF2046BDE87040114903F0F8
:105060004EBC70BDFCE1000868747470645F696ECA
:1050700069743A207463705F62696E642066616966
:105080006C65640068747470645F696E69743A205A
:105090007463705F6C697374656E206661696C65BA
:1050A000640000004D430008042202490248FFF753
:1050B0009DBE000058010020E52900080A46032192
:1050C00000F0DAB82DE9FE4F044688464E4FD7F877
:1050D00008A09AF800000007860E142E7ED360897F
:1050E0000428FBD360680178002978D0082976D19C
:1050F00007F114097869C0F303110E2955D03968F6
:1051000000F009FB002850D12089082876D32046DA
:1051100000F0DCFA20B12046BDE8FE4F02F0C0BB33
:1051200006F10E010D46204602F01FF978B32089E2
:10513000811989B2884238D84FF420720E2002F0CB
:105140004FF90546002D30D0698906F108008142EB
:1051500003D2284602F0A4FB27E032465146686895
:10516000FBF7E6F83146284602F0BAFC30B127A03A
:10517000FDF722FF284602F093FB16E02146284661
:1051800002F0CCFA20B1284602F08AFB0DE004E0E0
:10519000204602F085FB2C460CE02946204602F012
:1051A0009FFC38B127A0FDF707FF2046BDE8FE4F62
:1051B00002F076BB65683146204602F0D6F870B939
:1051C0006068D9F80010C160396901610021297057
:1051D0006980FF2202724181012001E00EE008E0B7
:1051E000CDE901080091FF2300224946204600F046
:1051F000A1FC2046BDE8FE4F02F052BB2046BDE8B0
:10520000FE4F02F04DBB00007069002069636D70B5
:105210005F696E7075743A206D6F76696E67207283
:105220002D3E7061796C6F616420746F2069636DCD
:105230007020686561646572206661696C65640AE6
:105240000000000069636D705F696E7075743A20CC
:10525000726573746F72696E67206F726967696EC9
:10526000616C20702D3E7061796C6F6164206661A5
:10527000696C65640A0000002DE9FF47074688460F
:1052800091461C2638891C2800D2064606F10800E3
:10529000044681B24FF42072222002F0A1F80546A4
:1052A00028002ED06889A04202D217A0FDF784FE04
:1052B000D7F804A06C6884F8008084F801904FF05F
:1052C0000008A4F80480A4F80680686879680830AB
:1052D0003246FBF72DF8DAF80C00039003A800F033
:1052E00003FE58B1A4F802800121CDE900810290AB
:1052F000FF2303AA0021284600F01CFC284602F0E8
:10530000CFFABDE8FF870000636865636B207468AF
:1053100061742066697273742070627566206361BF
:105320006E20686F6C642069636D70206D657373A7
:10533000616765000A460B21FFF79EBF10B5044662
:10534000607A022805D0012808D1608908B1884216
:1053500004D9204600F076F90120607210BD0000EB
:10536000044903480860091D0348086070470000AD
:10537000E000000104010020E0000002F8B506464C
:105380000D4617467189082904D23046BDE8F84019
:1053900002F086BA7468204600F092F920B13046D7
:1053A000BDE8F84002F07CBA3946284600F05CF8C7
:1053B00028B12178112907D0162937D12EE030469F
:1053C000BDE8F84002F06CBA1B4A39681268914295
:1053D00003D1231D12D0636883B1231D26D06368D7
:1053E00023B3914205D1606800906946284600F0D9
:1053F0003BF8D8B16178FFF7A1FF17E0607808B9F2
:105400000A2060702D6A35B12D6804E06178284665
:10541000FFF794FF2D68002DF8D107E0417A0129AC
:1054200004D1002141810222427201723046BDE85E
:10543000F84002F035BA000004010020F0B587B052
:1054400040F29444ADF818400024ADF81A40022709
:10545000CDE90047042506AECDE90365029301239B
:1054600000F077FB07B0F0BD006A04E042680B680B
:105470009A4202D000680028F8D170472DE9F04127
:1054800080460D46D8F8206029464046FFF7ECFFDD
:10549000002819D10A2001F08DFD04469CB1ADB160
:1054A00028686060002767816772277227730E483B
:1054B00076B129680068814202D10C48FDF77CFD75
:1054C0003068206034602046BDE8F0810020E8E7C5
:1054D00029680068814202D005A0FDF76DFD2760B4
:1054E000C8F82040EFE7000004010020A8180808D1
:1054F00069676D705F6C6F6F6B75705F67726F75EA
:10550000703A2066697273742067726F7570206DCF
:1055100075737420626520616C6C73797374656D4A
:105520007300000010B5046A002C06D0246804E063
:1055300005212046FFF702FF2468002CF8D110BD9A
:105540002DE9F84381460E46154620480068009034
:105550004FF000084FF420720821362001F040FF80
:105560000746002F2FD07C687889082802D218A01F
:10557000FDF722FDD9F804000090162D02D0172D5A
:1055800007D00AE006F104087068606001203072FC
:1055900003E0DFF8788070686060162D01D0172D69
:1055A0000ED125700020607060800821204600F038
:1055B00087F860804B46424669463846FFF73EFF13
:1055C000384602F06DF9BDE8F8830000FCE1000800
:1055D00069676D705F73656E643A20636865636BBD
:1055E00020746861742066697273742070627566D5
:1055F0002063616E20686F6C6420737472756374CD
:105600002069676D705F6D736700000008010020FE
:1056100010B504460A492046FFF730FF60B1022169
:105620004172017B491C0173636B1BB10122044968
:1056300020469847002010BD4FF0FF3010BD0000FD
:105640000401002070B505460C46022C06D9FAF775
:105650005DFE90FBF4F104FB110000E0012080B23C
:105660006881002801D10120688170BD4A7A012A31
:1056700009D1054B4A681B689A4204D002224A723B
:105680001622FFF75DBF70470401002070B50B487C
:1056900005680FE02C6A0AE0608938B1401E80B2CC
:1056A000608118B921462846FFF7E0FF2468002CE6
:1056B000F2D12D68002DEDD170BD0000A0000020BA
:1056C00000B501F0FFF8C04380B200BD70B50546DB
:1056D0000026002412E06989686801F0F3F820448C
:1056E00081B201EB1044A87AC00706D08EB1002623
:1056F000E0B2C4F3072141EA00242D68002DEAD16D
:1057000026B1E0B2C4F3072141EA0024E04380B2AD
:1057100070BD0126ECE708B50090421C07D00200DE
:1057200005D091F82D20920703D4002008BD012058
:1057300008BD4A68824201D1002008BD896800EA9C
:1057400001030A40934202D10143491C01D00020C9
:1057500008BD012008BD00002DE9F74F88B00446C0
:1057600000270998808C1438C11700EB5170C0F3E2
:10577000CF0005901425606807900798BA1F01783C
:1057800001F00F01052903D010460BB0BDE8F08FE2
:105790006189142901D21046F7E7C08801F078F832
:1057A000C0F30C01039100F40050029020891438DA
:1057B0001FFA80F89AE005984FF6FF7101EAC000E1
:1057C000404500D9404604904FF4207214210E2029
:1057D00001F006FE82465FEA0A005BD0BAF80A00D2
:1057E000142802D244A0FDF7E7FB1422DAF80400E3
:1057F0000799FAF79DFDDAF804000690049E30E060
:105800006089411B8FB2A84202D243A0FDF7D4FBAE
:10581000BE4200D237467FB300F050FC81465FEABB
:1058200009002DD060684B462844CDE9000741228D
:105830003946002001F0E0FE8346BBF1000F23D083
:10584000204602F02FF9C9F814403748C9F8100073
:105850005946504601F0ECFEF01B86B20EB1002511
:105860002468002ECCD1E81985B20998808C1438B0
:10587000404512DB012111E0FFE700252468F0E735
:10588000504602F00DF805E0484600F01BFC50467B
:1058900002F006F84FF0FF3077E700210398C0F3DD
:1058A0000C0009B1029909B140F4005000F0F0FF7A
:1058B0000699C8800498143080B200F0E9FF069978
:1058C0004880069800214181099851460A9A436907
:1058D0009847504601F0E4FF0498A8EB00001FFA37
:1058E00080F805990398084480B20390B8F1000F3E
:1058F0007FF461AF002048E774686973206E6565C6
:1059000064732061207062756620696E206F6E6519
:105910002070696563652100702D3E6C656E203EC8
:105920003D20706F66660000496500082DE9F84F5C
:1059300006460F464FF0010B756804212878B1EB3D
:10594000101F05D0304601F0ABFF0020BDE8F88FF6
:1059500000074FEA9068688800F09AFF0446308993
:10596000A04203D92146304602F03CF870894045F8
:1059700005D33089A04202D3B8F1140F04D23046C7
:1059800001F08EFF0020E1E7DFF870912869C9F887
:105990001400E968C9F81010C0F3031009F1140AE3
:1059A0000E2805D0384600F0AFF8C8B13C4628E0D4
:1059B00097F82D00800611D551463846FFF754FD63
:1059C00060B14F480090D9F81410814204D1D9F841
:1059D000100008B94FF0000B3C4612E0002410E024
:1059E000002499F814007F280BD04648046806E08C
:1059F000BC4203D0204600F087F810B92468002C80
:105A0000F6D1BBF1000F0BD03946D9F81000FFF7E3
:105A100082FE78BB99F81000C0F303100E282BD03B
:105A20004CB3E88830F0C00005D0304600F06CF987
:105A300006465EB37568C9F80040C9F80470C9F835
:105A4000085028780007800EA9F80C00414630461F
:105A500002F046F8687A012824D0022827D00628C8
:105A60001BD0112814D02146D9F81400FFF753FE9B
:105A700018B331E000E004E0304601F011FF0020EF
:105A800064E7304601F00CFF00205FE700205DE78F
:105A90003946304606F0C4FF21E03946304603F06F
:105AA000AFFB1CE039463046FFF70CFB17E05246CF
:105AB00039463046FFF762FC11E099F81400C0F354
:105AC00003100E2808D00FFA88F1304601F062FF6B
:105AD00002213046FFF7F2FA304601F0E1FE0020E5
